:020000040800F2
:10000000B007002029020008A71500081D130008EA
:10001000A51500081F040008191A000800000000B8
:10002000000000000000000000000000AB15000808
:100030002104000800000000A9150008AD15000803
:10004000430200084302000843020008430200087C
:10005000430200084302000843020008430200086C
:10006000430200084302000843020008430200085C
:10007000430200084302000843020008430200084C
:10008000430200084302000843020008430200083C
:10009000430200084302000843020008430200082C
:1000A000430200084302000843020008430200081C
:1000B000430200084302000843020008430200080C
:1000C00043020008430200084302000843020008FC
:1000D00043020008430200084302000843020008EC
:1000E00043020008430200084302000843020008DC
:1000F00043020008430200084302000843020008CC
:1001000043020008430200084302000843020008BB
:1001100043020008430200084302000843020008AB
:10012000430200084302000843020008430200089B
:10013000430200084302000843020008430200088B
:10014000430200084302000843020008430200087B
:10015000430200084302000843020008430200086B
:10016000430200084302000843020008430200085B
:100170004302000843020008430200080000000098
:10018000430200084302000800F002F800F03CF8C7
:100190000AA090E8000C82448344AAF10107DA45E2
:1001A00001D100F031F8AFF2090EBAE80F0013F0F8
:1001B000010F18BFFB1A43F001031847C4180000D1
:1001C000E4180000103A24BF78C878C1FAD8520762
:1001D00024BF30C830C144BF04680C6070470000C1
:1001E0000023002400250026103A28BF78C1FBD840
:1001F000520728BF30C148BF0B6070471FB501F0E0
:100200002DFC1FBD10B510BD00F0CFF81146FFF753
:10021000F5FF01F012FC00F0EDF803B4FFF7F2FF78
:1002200003BC00F0F5F80000094880470948004782
:10023000FEE7FEE7FEE7FEE7FEE7FEE7FEE7FEE796
:10024000FEE7FEE704480549054A064B70470000F3
:100250004516000889010008B0010020B007002001
:10026000B0030020B003002053EA020C00F06980C4
:100270002DE9F04B4FF00006002B1FBFB3FA83F5BA
:1002800003FA05F424FA05F65E4012BF1643B2FAEB
:1002900082F502FA05F4C5F120051EBF22FA05FC1D
:1002A00044EA0C04203556EA044C4FEA144418BFC3
:1002B000641C4FF000084FF00009904271EB030CF2
:1002C00039D3002919BFB1FA81F701FA07F6B0FA5C
:1002D00080F700FA07F6C7F120071EBF20FA07FCD7
:1002E00046EA0C062037B6FBF4FCA7EB0507103FE7
:1002F00007F01F0BCBF120060CFA0BFB2CFA06F6CD
:1003000044BFB3460026202FA4BF5E464FF0000B2B
:100310005BEA060C08BF4FF0010B19EB0B09ABFBB6
:10032000027C48EB0608C01B06FB02CC0BFB03CC8F
:1003300071EB0C01C1E70B46024641464846BDE859
:10034000F08B13B54FF000004FF00001AFF30080C9
:10035000BDE81C4070474FF0000200B513469446BC
:100360009646203922BFA0E80C50A0E80C50B1F10D
:100370002001BFF4F7AF090728BFA0E80C5048BF21
:100380000CC05DF804EB890028BF40F8042B08BFBF
:10039000704748BF20F8022B11F0804F18BF00F8BB
:1003A000012B7047704770477047754600F02CF876
:1003B000AE4605006946534620F00700854618B052
:1003C00020B5FFF73FFFBDE820404FF000064FF09B
:1003D00000074FF000084FF0000B21F00701AC467A
:1003E000ACE8C009ACE8C009ACE8C009ACE8C00999
:1003F0008D46704710B50446AFF300802046BDE837
:100400001040FFF70ABF000000487047500100206D
:1004100001491820ABBEFEE7260002007047FEE748
:10042000704772B6FEE770B5040003D094F8200060
:1004300010B104E0012070BD204600F081F8206872
:10044000016841F00101016000F0AEF905460526A2
:1004500004E000F0A9F9401B0A2811D82068406880
:10046000C007F6D02068016821F00201016000F0A9
:100470009BF905460BE000F097F9401B0A2806D9C6
:10048000606A40F40030606284F82060D2E720683F
:1004900040688007EFD4207E0128206801683DD0A5
:1004A00021F080010160607E01282068016838D059
:1004B00021F040010160A07E01282068016833D04E
:1004C00021F020010160E07E0128206801682ED023
:1004D00041F010010160207F01282068016829D0C7
:1004E00021F008010160607F01282068016824D0A4
:1004F00021F004010160D4E902010843D4E90412A7
:10050000114308436168491E08432168C8610020FF
:100510006062012084F82000002070BD41F080015D
:10052000C0E741F04001C5E741F02001CAE721F0F2
:100530001001CFE741F00801D4E741F00401D9E709
:1005400010B586B0044614216846FFF704FF14492D
:100550002068884221D113480021026842F00072CD
:100560000260006800F0007005900E4810380268C4
:1005700042F002020260006800F0020005904FF4B1
:10058000407000900220CDE9010103200390092072
:1005900004906946044800F009F806B010BD000058
:1005A0000064004040380240000402402DE9F84F4A
:1005B000DFF8BCA10022012503264FF00F090AF144
:1005C000040BAAF1040E00BF0B6805FA02F42340E5
:1005D000A34270D10F7907F00307012F01D0022F3A
:1005E00016D187684FEA420806FA08FC27EA0C078A
:1005F000D1F80CC00CFA08FC4CEA070CC0F808C093
:100600004768A7430C79C4F3001494403C4344600A
:100610000C79E443A4070AD0C4684FEA420C06FAF6
:100620000CF7BC438F6807FA0CF72743C7600C79B7
:1006300004F00304022C12D1D40800EB840CDCF883
:1006400020405707FF0E09FA07F824EA0804D1F8FA
:10065000108008FA07F848EA0408CCF820800468FB
:100660004FEA420C06FA0CF7BC430F7907F0030778
:1006700007FA0CF7274307604C6814F4403F70D02A
:100680003C4C276847F480472760246822F0030722
:1006900004F480440094384C07EB040CDCF8084860
:1006A00097074FEA177809FA08F7BC43334FB84267
:1006B00002D1002724E054E0314FB84201D1012794
:1006C0001EE0304FB84201D1022719E02E4FB84248
:1006D00001D1032714E02D4FB84201D104270FE0C8
:1006E0002B4FB84201D105270AE02A4FB84201D169
:1006F000062705E0284FB84201D1072700E0082768
:1007000007FA08F72743CCF80878DAF8004057468C
:10071000D1F804C09C435FEACC2C00D51C433C605C
:10072000DBF800405F46D1F804C09C435FEA8C2CA4
:1007300000D51C433C60DEF800407746D1F804C089
:100740009C435FEA8C3C00D51C433C60084F083F4B
:100750003C68D1F804C09C435FEACC3C00D51C4304
:100760003C60521C102AFFF42FAFBDE8F88F000048
:10077000083C014044380240003001400000024083
:100780000004024000080240000C02400010024039
:100790000014024000180240001C02400AB18161AE
:1007A00070470904FBE700000148806870470000BB
:1007B000000000200248816802781144816070477F
:1007C000000000200B4810B5016841F40071016081
:1007D000016841F480610160016841F48071016049
:1007E000032000F061F80F2000F006F800F024F874
:1007F000002010BD003C024070B50D4D04464FF482
:100800007A712878B1FBF0F00A490968B1FBF0F081
:1008100000F0FEFA48B9102C07D200222146501EE3
:1008200000F022F800206C6070BD012070BD000057
:10083000000000200C0000200A4808B5016841F4BF
:1008400080410160006800F4804000900548001F6E
:10085000016841F080510160006800F08050009014
:1008600008BD000044380240F0B40E4B1B680C4633
:10087000C3F30223C3F10705042D00D90425191D74
:10088000072901D2002300E0DB1E012606FA05F14C
:10089000491E214099409E40761E16403143F0BCCF
:1008A00001F0BBB80CED00E0064900F00702086853
:1008B0004FF6FF03184040EA0220034A1043086045
:1008C000704700000CED00E00000FA052DE9F0474C
:1008D0000E46050065D0DFF81481D8F80000F7B2A5
:1008E00000F00700B04207D288F80070D8F8000086
:1008F00000F00700B04254D128683D4C810712D562
:10090000400703D5206840F4E050206028780007B5
:1009100003D5206840F4604020602068A96820F07A
:10092000F000084320602878C0072DD0304968685F
:100930000839012812D0022813D0032811D00968E1
:10094000890700292DDA216821F003010143216084
:10095000FFF72AFF814641F2883A0EE009688903D1
:10096000EFE709688901ECE7FFF71EFFA0EB09013B
:10097000514502D90320BDE8F0872068696800F07E
:100980000C00B0EB810FEFD1D8F80010404601F019
:100990000701B14207D90770006800F00700B042B4
:1009A00001D00120E7E72878400705D52068E968ED
:1009B00020F4E050084320602878000706D520681E
:1009C000296920F4604040EAC100206000F038F856
:1009D0002168084AC1F30311515CC8400649086008
:1009E00006480068FFF708FF0020C4E7003C02400B
:1009F00008380240661A00080C000020040000209D
:100A00000448054900680968044AC1F38221515C21
:100A1000C84070470C00002008380240761A0008D1
:100A20000448054900680968044AC1F34231515C31
:100A3000C84070470C00002008380240761A0008B1
:100A4000154810B5006810F00C02144813D0144972
:100A5000042A0FD0082A0ED10F4C241F22682368C5
:100A600002F03F025B0207D52068C0F38810A0FBAC
:100A7000010106E0084610BD2168C1F38811A1FB01
:100A800000010023FFF7F0FB2168C1F30141491C7D
:100A90004900B0FBF1F010BD083802400024F4001A
:100AA000001BB7002DE9F84F04006ED02078DFF866
:100AB0004C93C007A9F104054AD009F1040001686C
:100AC000C1F38101012908D00068C0F38100022828
:100AD0000AD1D9F80000400206D52868800337D52E
:100AE00060680028E1D033E06068B0F5803F10D046
:100AF000B0F5A02F286810D020F480302860286836
:100B000020F4802028606068A8B1FFF74DFE0646FB
:100B10000DE0286840F48030F4E740F4802028603D
:100B2000F7E700BFFFF740FE801B642873D82868F2
:100B30008003F7D50CE0FFF737FE064605E000BF5F
:100B4000FFF732FE801B6428F0D828688003F7D4B2
:100B50002078DFF8AC8280074FF0000A3ED5A74826
:100B6000001D016811F00C0F08D00068C0F381006F
:100B700002280BD1D9F80000400207D4286880076A
:100B800016D5E068012800D112E033E1E068B8B181
:100B90000120C8F80000FFF707FE064605E000BF89
:100BA000FFF702FE801B0228C0D828688007F7D50F
:100BB0002868216920F0F80040EAC10028600DE0B3
:100BC000C8F800A0FFF7F0FD064604E0FFF7ECFDD3
:100BD000801B02281FD828688007F7D420780007D8
:100BE00022D5864F87486169703771B10121016054
:100BF000FFF7DAFD064604E0FFF7D6FD801B02286A
:100C000009D838688007F7D50EE0C0F800A0FFF7D4
:100C1000CBFD064605E082E0FFF7C6FD801B0228FB
:100C20007DD838688007F7D42078400768D5DFF88A
:100C3000CCB100270BF13C0BDBF80000C0000BD45B
:100C4000DBF8001041F08051CBF80010DBF8000019
:100C5000012700F0805000906B4E3068C00510D422
:100C6000306840F480703060FFF79EFD009005E032
:100C7000FFF79AFD0099401A022850D83068C00545
:100C8000F6D55E4EA0686C3601280FD00528306876
:100C900010D020F001003060306820F00400306097
:100CA000A068B8B1FFF780FD00900FE0306840F019
:100CB0000100F4E740F004003060F7E7FFF774FD4F
:100CC0000099411A41F28830814266D83068800725
:100CD000F4D50EE0FFF768FD009007E0FFF764FD34
:100CE0000099411A41F28830814256D83068800715
:100CF000F4D42FB1DBF8001021F08051CBF80010B4
:100D0000A069C8B33D49091D0968C1F381010229E1
:100D10004AD00228504607D0C8F8600000E03CE006
:100D2000FFF742FD04463BE04746C8F86000FFF786
:100D30003BFD064605E000BFFFF736FD801B02289D
:100D40002BD828688001F7D4D4E907010843A16AA9
:100D50002E4A490802EB0141626A41EA82110843C6
:100D600094F82C1040EA0161C9F80010012038669F
:100D7000FFF71AFD044606E03EE000BFFFF714FD52
:100D8000001B022809D828688001F7D534E000BF8D
:100D9000FFF70AFD001B022802D90320BDE8F88FE7
:100DA00028688001F4D427E00128F7D0D9F80000A2
:100DB000E26900F4800191421CD1226A00F03F01F7
:100DC000914217D147F6C071626A0140B1EB821FB0
:100DD00010D1A26A4FF0FF3300F4403103EB52020E
:100DE000B1EB024F06D194F82C1000F07060B0EB1C
:100DF000016F01D00120D1E70020CFE70438024085
:100E000000004742800E4742007000400000FFFF94
:100E100010B5401EB0F1807F01D3012010BD4FF00E
:100E2000E02460610F21601700F0F7FD0020A06151
:100E300007202061002010BD10B590F83C20012A49
:100E400022D0012280F83C20CA688C6822F44072CB
:100E500022434C6822F4806222430C6822F4006230
:100E600022430C6922F4805222434C6922F400523E
:100E70002243C969002322F480420A4301684A647C
:100E800080F83C30002010BD022010BD70B590F8F5
:100E90003C20012A32D0012480F83C40022280F814
:100EA0003D2003685A689D6822F070060A68324344
:100EB0005A60134B02689A4214D0B2F1804F11D09D
:100EC000104B9A420ED0104B9A420BD00F4B9A42C5
:100ED00008D00F4B9A4205D00E4B9A4202D00E4BCF
:100EE0009A4204D1496825F080031943916080F843
:100EF0003D40002180F83C10084670BD022070BDC6
:100F0000000001400004004000080040000C0040C8
:100F100000040140004001400018004010B50400EA
:100F200003D094F83D0010B107E0012010BD00206F
:100F300084F83C00204600F01FF8022084F83D00B1
:100F4000211D206800F086FB012084F8460084F80B
:100F50003E0084F83F0084F8400084F8410084F8A3
:100F6000420084F8430084F8440084F8450084F883
:100F70003D00002010BD000008B50C4A01680C4877
:100F8000914207D1016841F001010160006800F061
:100F9000010009E0074A914207D1016841F00201CE
:100FA0000160006800F00200009008BD00000140F0
:100FB000443802400004014070B5044690F83C00FB
:100FC0000025012817D0012684F83C60022084F80F
:100FD0003D002068826822F0770222F47F4282601E
:100FE0000868502838D00DDC20284FD005DC90B39D
:100FF000102811D14AE0022070BD302846D0402888
:101000000AD13BE060282FD070280DD0B0F5805F6A
:1010100003D0B0F5005F12D0012584F83D600020B8
:1010200084F83C00284670BDCB68D1E901212068D6
:1010300000F074FB2068816841F0770109E0CB681B
:10104000D1E90121206800F069FB2068816841F442
:1010500080418160E1E719E0CA684968206800F0D2
:1010600031FC5021206806E0CA684968206800F019
:101070003AFC6021206800F05BFBCEE7CA68496853
:10108000206800F01FFC40212068F4E72268014638
:101090001046F0E710B586B0044614216846FFF705
:1010A0005AF90E492068884216D10D48002102687D
:1010B00042F010020260006800F0100005904FF44A
:1010C000007000900220CDE901010120CDE903105C
:1010D00069460448FFF76AFA06B010BD00000140F7
:1010E000303802400010024070B5044690F83C00D1
:1010F00000260D4601280FD0012084F83C006AB17B
:10110000042A1DD0082A2FD00C2A3FD00126002007
:1011100084F83C00304670BD022070BD206800F0AD
:101120000FFB2068816941F00801816120688169B5
:1011300021F004018161206881692A69114311E06D
:10114000206800F02DFB2068816941F40061816115
:101150002068816921F480618161206881692A6940
:1011600041EA02218161D2E7206800F04FFB20684C
:10117000C16941F00801C1612068C16921F0040121
:10118000C1612068C1692A69114311E0206800F03B
:1011900071FB2068C16941F40061C1612068C169C7
:1011A00021F48061C1612068C1692A6941EA022194
:1011B000C161ACE710B5040003D094F83D0010B154
:1011C00007E0012010BD002084F83C00204600F01C
:1011D0001EF8022084F83D00211D206800F03AFA34
:1011E000012084F8460084F83E0084F83F0084F82B
:1011F000400084F8410084F8420084F8430084F8F9
:10120000440084F8450084F83D00002010BD70477C
:1012100070B5040004D094F83D00002510B106E03C
:10122000012070BD84F83C50204600F023F82420B3
:1012300084F83D002068C16821F40051C160204657
:1012400000F064FB2068016921F49041016120688D
:10125000416921F02A0141612068C16841F40051CF
:10126000C1602564202084F83D0084F83E00002001
:1012700070BD000070B586B0044614216846FFF7C3
:101280006AF82248204E256800242049143802229A
:101290000323B54218D10D6845F010050D600968AB
:1012A00001F010010591016841F002010160006840
:1012B000694600F002000590C0208DE81500072067
:1012C000CDE9033012481BE0124EB5421AD10D6829
:1012D00045F020050D60096801F0200105910168C5
:1012E00041F0400101600068694600F0400005904F
:1012F0004FF484408DE815000820CDE903300648FE
:10130000FFF754F906B070BD0010014044380240A8
:10131000000402400014014000180240FEE70000F3
:101320000D4810B50B49016010214160002181601A
:10133000C16001614161017641768176C1760177B4
:101340004177FFF770F8002803D0BDE81040FFF7A1
:1013500068B810BD006400401000002070B586B071
:1013600014216846FEF7F7FF23480024016841F086
:1013700002010160016801F002010591016841F07C
:1013800040010160016801F040010591016841F0F0
:1013900001010160016801F001010591016841F05E
:1013A00080010160016801F080010591016841F050
:1013B000100101600068114E00F01000059000223D
:1013C0004FF4E0513046FFF7E9F9B01400900125E1
:1013D000CDE90154694630460394FFF7E7F84FF42E
:1013E0004060CDE900050220CDE90204694630469F
:1013F000FFF7DCF806B070BD30380240001C024038
:1014000010B596B000240F94109411941294139474
:101410001C2108A81494FEF79EFF20216846FEF7C1
:101420009AFF294827490160A721C0E9011444F621
:101430001F61C0E9031444618461FFF76FFD08B1C7
:10144000FEF7EFFF4FF480500F900FA91E48FFF7F3
:10145000B3FD08B1FEF7E5FF1B48FFF7ABFE08B18F
:10146000FEF7DFFF139413A917481494FFF70EFD3E
:1014700008B1FEF7D6FF602008904FF4FA60CDE97E
:1014800009040B940C940D94002208A90E480E94A4
:10149000FFF72AFE08B1FEF7C4FF00944FF4005096
:1014A000CDE90440029401940394694606480794E8
:1014B000FFF7C2FC08B1FEF7B4FF0348FFF7EAFDEF
:1014C00016B010BD000001403800002010B586B0F5
:1014D000002417480094019402940394049413493F
:1014E00005940160A721C0E9011444F61F61C0E919
:1014F000031444618461FFF711FD08B1FEF791FF09
:101500004FF48050009069460948FFF755FD08B137
:10151000FEF787FF049404A905480594FFF7B6FC7D
:10152000002801D0FEF77DFF06B010BD0004014089
:10153000800000200C4810B50A4901604FF4E131E9
:101540004160002181600C22C160C0E90412816108
:10155000C161FFF75DFE002803D0BDE81040FEF733
:1015600060BF10BD00100140C80000200C4810B53D
:101570000A4901604FF4E1314160002181600C2291
:10158000C160C0E904128161C161FFF741FE00281A
:1015900003D0BDE81040FEF744BF10BD0014014069
:1015A0000C010020FEE7FEE770477047FFF702B925
:1015B00030B593B030216846FEF7CDFE14210CA85B
:1015C000FEF7C9FE1D480025016841F08051016009
:1015D000006800F0805011901948016841F4804182
:1015E00001600068022400F4804011900120009006
:1015F000000401908001CDE9064006200890A82053
:10160000CDE9090404200B906846FFF74BFA08B1B6
:1016100072B6FEE70CA90F2081E831004FF4A0500C
:101620000F904FF48050109005210CA8FFF74EF951
:10163000002801D072B6FEE713B030BD403802403A
:10164000007000400248016841F470010160704779
:1016500088ED00E0F0B50268254C264D264E274F58
:10166000274B4FF0804CA04209D0604507D0A842DC
:1016700005D0B04203D0B84201D0984204D122F044
:10168000700E4A6842EA0E02A0421BD0604519D093
:10169000A84217D0B04215D0B84213D0984211D00A
:1016A000184DA8420ED0184DA8420BD0174DA84295
:1016B00008D0174DA84205D0164DA84202D0164DAD
:1016C000A84203D122F44075CA682A434D6922F02A
:1016D00080022A4302608A68C2620A688262A0426B
:1016E00001D0984201D10969016301214161F0BD36
:1016F000000001400004004000080040000C0040D1
:101700000004014000400140004401400048014005
:1017100000180040001C00400020004010B5846804
:1017200042EA032224F47F440A432243826010BD2C
:10173000826822F070020A4342F00701816070471C
:10174000F0B5026A22F001020262036A426884690B
:10175000124E24F073050C682C4323F002058B68AD
:101760002B430D4DA84201D0B04205D123F008070C
:10177000CB683B4323F00403A84201D0B04205D11B
:101780004D6922F4407215438A692A43426084619C
:10179000496841630362F0BD00000140000401405C
:1017A000F0B5026A22F010020262026A436884699C
:1017B0000D6824F4E64444EA05248D6822F02002F2
:1017C00042EA05120F4D104EA84201D0B04206D198
:1017D000CF6822F0800242EA071222F04002A842BB
:1017E00001D0B04207D14D6923F4406343EA850339
:1017F0008D6943EA850343608461496881630262BD
:10180000F0BD00000000014000040140F0B5026A94
:1018100022F480720262026A4368C46922F4007290
:1018200024F073050C68124E2C438D6842EA0522A1
:101830000E4DA84201D0B04206D1CF6822F400621A
:1018400042EA072222F48062A84201D0B04207D1C6
:101850004D6923F4405343EA05138D6943EA0513A8
:101860004360C4614968C1630262F0BD0000014089
:101870000004014030B5026A22F480520262046A18
:101880004268C3690D6823F4E64343EA05238D6883
:1018900024F4005444EA0534084DA84202D0084D0F
:1018A000A84204D14D6922F4804242EA8512426086
:1018B000C36149680164046230BD0000000001405A
:1018C0000004014010B5036A046A24F001040462B4
:1018D000846924F0F00444EA021423F00A020A4363
:1018E0008461026210BD10B5036A23F01003036225
:1018F0008369046A23F4704343EA023224F0A003AC
:1019000043EA01118261016210BD000070B5044616
:1019100000680169E26821F44051114301612169C5
:10192000A068E26908436169114308432168CA68F5
:1019300049F20C639A430243CA6020684169A26974
:1019400021F440711143416131492068884202D03D
:101950003049884202D1FFF763F801E0FFF750F801
:10196000E2690023192164253226B2F5004F62682E
:1019700028D0A0FB0101930F9200FEF775FC0146F1
:10198000B0FBF5F06FF01802504301EB800006EB5E
:101990000010B0FBF5F000F0F002B1FBF5F002EB47
:1019A0000012B1FBF5F06FF01803584301EB800013
:1019B00006EB0010B0FBF5F000F00F0021681044BA
:1019C000886070BDA0FB010192185B41FEF74CFCE2
:1019D0000146B0FBF5F00201B1FBF5F06FF0180322
:1019E000584301EB800006EBC000B0FBF5F000F0BF
:1019F000F80002EB4002B1FBF5F0584301EB800028
:101A000006EBC000B0FBF5F000F00700D6E70000E1
:101A10000010014000140140FEE70907090E0028EC
:101A200004DB00F1E02080F80014704700F00F00A4
:101A300000F1E02080F8141D7047FEF7C3FEFFF7A9
:101A4000B7FDFFF78BFCFFF76BFCFFF7D9FCFFF747
:101A50003DFDFFF76FFDFFF789FDFEE74FF040709A
:101A6000E1EE100A704700000000000000000102D3
:101A70000304060708090000000001020304000037
:101A8000A01A00080000002010000000C401000897
:101A9000B01A000810000020A0070000E0010008B4
:101AA0000100000010000000000000000024F4000D
:040000050800018965
:00000001FF
