:020000040800F2
:10000000380D00209D01000817360008952A0008C9
:10001000153600080F0900087542000800000000AE
:10002000000000000000000000000000DF3A0008AF
:100030001109000800000000DD3A0008293B000813
:10004000B7010008B7010008B7010008B7010008B0
:10005000B7010008B7010008B7010008B7010008A0
:10006000B7010008B7010008B7010008B701000890
:10007000B7010008B7010008B7010008B701000880
:10008000B7010008B7010008B7010008B701000870
:10009000B7010008B7010008B7010008B701000860
:1000A000D13B0008B7010008B7010008B7010008FC
:1000B000B7010008B7010008B7010008B701000840
:1000C000B7010008B7010008B7010008B701000830
:1000D000B7010008514200085D420008694200086B
:1000E000B7010008B7010008B7010008B701000810
:1000F000B7010008B7010008B7010008B701000800
:10010000B7010008B7010008B7010008B7010008EF
:10011000B7010008A13F0008B7010008ED3B000847
:10012000B7010008B7010008B7010008B7010008CF
:10013000B7010008B7010008B7010008B7010008BF
:10014000B7010008B7010008B7010008B7010008AF
:10015000B7010008B7010008B7010008B70100089F
:10016000B7010008B7010008B7010008B70100088F
:10017000B7010008B7010008B7010008000000003F
:10018000B7010008B7010008DFF80CD000F05CFBF5
:100190000048004701680008380D002006488047E5
:1001A00006480047FEE7FEE7FEE7FEE7FEE7FEE75C
:1001B000FEE7FEE7FEE7FEE7C13B00088901000815
:1001C0002DE9F05F0546002092469B46884606468C
:1001D000814640241BE0284641464746224600F01F
:1001E00064FA53465A46C01A914110D31146184634
:1001F000224600F04BFA2D1A67EB01084F462246C3
:100200000120002100F042FA17EB00094E41201EA8
:10021000A4F10104DFDC484631462A464346BDE8E6
:10022000F09F2DE9F0410024061B254671F10006E0
:1002300005DA01240027D0EB070067EB0101161E49
:1002400073F1000605DA0027D2EB0702012567EB00
:100250000303FFF7B5FF86460E4617469C46AC42A1
:1002600004D00025D0EB050E65EB010624B100207B
:10027000D2EB000760EB030C704631463A4663460A
:10028000BDE8F081D2B201E000F8012B491EFBD29B
:1002900070470022F6E710B513460A460446194691
:1002A000FFF7F0FF204610BD30B50446002003469E
:1002B00000E05B1C934203D2E05CCD5C401BF8D0B5
:1002C00030BD2DE9FE4F804681EA0300C00F0C4689
:1002D000009021F0004123F00045B8EB0200A94155
:1002E00005D24046214690461C460B46024623F066
:1002F0000040104347D0270DC7F30A00C3F30A514B
:100300000290401A019040286BDAC3F3130040F4C6
:10031000801B0098924620B10023D2EB030A63EBC6
:100320000B0B01985946C0F14002504600F0AEF95F
:1003300006460D4650465946019A00F0C6F910EBA4
:1003400008006141002487EA115284EAE7731A43E6
:1003500040D0009A62B3019A012A4FEA075215DC95
:10036000001B61EB02014FF0004202EA0752CDE9A7
:100370000042001C41F5801132462B4600F0FDF989
:1003800003B0BDE8F08F40462146F9E7001B61EB62
:100390000201001C41F5801300185B412018A2F5F2
:1003A000001747EB030140EAD570B6196D4111E023
:1003B0006D084FEA360645EAC0754FEA0752001B42
:1003C00061EB0201001C41F5801149084FEA300041
:1003D0000019514132462B4603B0BDE8F04F00F002
:1003E000BDB90098012240000023D0EB020263EB6C
:1003F000E073009821464FEAE074B8EB000061EB2F
:100400000401E9E783F000435BE781F0004158E72E
:100410002DE9FE4F81EA030404F0004421F000417D
:1004200000944FF0000B23F0004350EA01045ED02B
:1004300052EA03045BD0C3F30A54C1F30A552C44B7
:10044000A4F2F3340194A0FB0254C1F3130141F46C
:100450008011C3F3130343F4801301FB024400FB38
:10046000034E840A970A44EA815447EA8357A4FB5F
:10047000076802958D0A05FB07854FEA932C04FB5C
:100480000C542705029D4FEA065847EA1637B5EB8C
:1004900008056EEB070C870E920E47EA811742EAB9
:1004A0008312A7FB0201B6EB0B0164EB00042B0DDA
:1004B00043EA0C335E1844EB1C50DA465146E7FB26
:1004C0000201C5F313044FEA0B3343EA14534FEA16
:1004D0000432019C43EA0603A4F10C040294009C3C
:1004E000CDE900B400F049F903B0BDE8F08F002079
:1004F0000146F9E72DE9F04D81EA030404F0004BD1
:1005000021F0004514464FF0000A23F0004150EA64
:10051000050220D054EA01021DD0C5F30A57024655
:10052000C5F31303C1F31300C1F30A5640F4801559
:1005300043F48013A7EB0608101BD64608F2FD38DB
:1005400073EB050002D308F1010801E092185B414A
:10055000B8F1000F03DA00200146BDE8F08D00205D
:100560004FF48011064684460EE0171B73EB050717
:1005700005D3121B63EB050306434CEA010C490843
:100580004FEA300092185B4150EA0107EDD152EA80
:10059000030012D082EA040083EA0501084305D073
:1005A000101BAB4106D20122002306E000224FF0CF
:1005B000004302E06FF0010253101AEB06004CEB0F
:1005C000085110EB0A0041EB0B01BDE8F04D00F0C3
:1005D000C5B800F0004230F000400AD0C10D01F56E
:1005E0006071C0F3160042EA0151C208400711438E
:1005F000704700200146704730B5041E71F10004B9
:1006000004DB4FF00044404264EB0101141E73F11F
:10061000000405DB1C464FF00043524263EB040329
:10062000994208BF904230BD01F0004330B421F040
:10063000004150EA010206D00A0DA2F56072C1F332
:100640001301002A02DC30BC00207047440F44EA4A
:10065000C104C100E01830BC00EBC25000F047B844
:1006600030B50B46014600202022012409E021FA82
:1006700002F59D4205D303FA02F5491B04FA02F57F
:100680002844151EA2F10102F1DC30BD202A04DB52
:10069000203A00FA02F1002070479140C2F1200395
:1006A00020FA03F3194390407047202A04DB203AD4
:1006B00021FA02F00021704721FA02F3D040C2F182
:1006C00020029140084319467047202A06DBCB17C9
:1006D000203A41FA02F043EAE07306E041FA02F3FD
:1006E000D040C2F1200291400843194670470029CA
:1006F000A8BF7047401C490008BF20F001007047A8
:1007000010B4B0FA80FC00FA0CF050EA010404BF07
:1007100010BC704749B1CCF1200421FA04F411FA5D
:100720000CF118BF012121430843A3EB0C01CB1DA1
:100730004FEA00614FEA102042BF002010BC704712
:1007400000EBC35010440029A4BF10BC7047401CEC
:10075000490008BF20F0010010BC704710B5141EFE
:1007600073F1000408DA401C41F1000192185B416A
:100770001A4301D120F0010010BD2DE9F04D924641
:100780009B4611B1B1FA81F202E0B0FA80F2203258
:100790009046FFF77BFF04460F4640EA0A0041EA15
:1007A0000B0153465A46084313D0114653EA010041
:1007B00019D0C8F140025046FFF777FF05460E46B4
:1007C000504659464246FFF761FF084305D00120D5
:1007D00004E020463946BDE8F08D0020054346EA96
:1007E000E0762C4337430A986305E40AA0EB08003F
:1007F0000022FD0A44EA47540A3002D5002001468F
:10080000E9E7010510196941DDE908450019694169
:10081000BDE8F04DA2E7C1F30A52C1F3130140F263
:10082000FF3341F480119A4202DA002001467047FA
:1008300040F233439A42A2F2334202DC5242FFF7C3
:1008400034BFFFF723BF0000064C074D06E0E06809
:1008500040F0010394E8070098471034AC42F6D307
:10086000FFF796FC00A7000820A700082DE9F04D2F
:1008700000231A461B1A8A4103DB00200146BDE80B
:10088000F08DC1F30A52C1F3130141F480154FF00A
:10089000000BD10702D100186D41521E00270446FB
:1008A00040F2FF11384601EB620A3E46804602469E
:1008B00000204FF48011FFF7F8FEC2197141BB18F8
:1008C00046EB0100B4EB030C75EB000C04D3E41A07
:1008D00065EB000517460E46241908F101006D412D
:1008E00080463428E3DDF91946EB0600091BA841D0
:1008F00003D24FF0FF32134601E0002213461BEBF8
:10090000070046EB0A51BDE8F04DFFF727BFFEE7B1
:10091000704701E0491EFDD10B21401E01D0891E08
:10092000F8E7704770B5174C00224FF4005120468D
:1009300000F0FFF901229103204600F0FAF9124D70
:1009400001220821284600F0F4F90022102128464F
:1009500000F0EFF900222021284600F0EAF90122F8
:100960004021284600F0E5F901228021284600F0C8
:10097000E0F92046BDE8704000224FF4004100F04D
:10098000D8B90000001802400004024070B5164CAF
:1009900000224FF40051204600F0CBF901229103D0
:1009A000204600F0C6F9114D00220821284600F02B
:1009B000C0F901221021284600F0BBF900222021B5
:1009C000284600F0B6F901224021284600F0B1F98E
:1009D00000228021284600F0ACF92046BDE8704096
:1009E0000122D10300F0A5B9001802400004024022
:1009F00070B5174C01225103204600F09AF90022ED
:100A00004FF48041204600F094F9124D0122082154
:100A1000284600F08EF900221021284600F089F9BE
:100A200001222021284600F084F900224021284696
:100A300000F07FF901228021284600F07AF9204653
:100A4000BDE8704000224FF4004100F072B9000090
:100A5000001802400004024072B6FEE72DE9F041A2
:100A60000446876D00F06AF9064694F835000025C3
:100A7000022806D08020606584F834500120BDE84B
:100A8000F0812068016821F0160101602068416949
:100A900021F080014161206C08B9A06C20B1206870
:100AA000016821F0080101602068016821F001015E
:100AB00001600CE000F042F9801B052807D92020D6
:100AC0006065032084F8350084F83450D7E7206847
:100AD0000068C007EED194F85C103F208840B860F1
:100AE000012084F8350084F834500020C7E790F8DE
:100AF0003510022903D0802141650120704705216E
:100B000080F835100068016821F0010101600020C3
:100B10007047000070B5044600F010F90546601CEF
:100B200002D004480078044400F008F9401BA042B9
:100B3000FAD370BD380000202DE9F84FDFF8BCA1D2
:100B40000022012503264FF00F090AF1040BAAF138
:100B5000040E00BF0B6805FA02F42340A34270D1D3
:100B60000F7907F00307012F01D0022F16D18768F4
:100B70004FEA420806FA08FC27EA0C07D1F80CC035
:100B80000CFA08FC4CEA070CC0F808C04768A743F9
:100B90000C79C4F3001494403C4344600C79E44362
:100BA000A4070AD0C4684FEA420C06FA0CF7BC430B
:100BB0008F6807FA0CF72743C7600C7904F0030429
:100BC000022C12D1D40800EB840CDCF8204057072B
:100BD000FF0E09FA07F824EA0804D1F8108008FA91
:100BE00007F848EA0408CCF8208004684FEA420C71
:100BF00006FA0CF7BC430F7907F0030707FA0CF766
:100C0000274307604C6814F4403F70D03C4C276881
:100C100047F480472760246822F0030704F48044E7
:100C20000094384C07EB040CDCF8084897074FEAAF
:100C3000177809FA08F7BC43334FB84202D10027AE
:100C400024E054E0314FB84201D101271EE0304F7B
:100C5000B84201D1022719E02E4FB84201D1032733
:100C600014E02D4FB84201D104270FE02B4FB842BA
:100C700001D105270AE02A4FB84201D1062705E035
:100C8000284FB84201D1072700E0082707FA08F7E4
:100C90002743CCF80878DAF800405746D1F804C06A
:100CA0009C435FEACC2C00D51C433C60DBF8004041
:100CB0005F46D1F804C09C435FEA8C2C00D51C43EE
:100CC0003C60DEF800407746D1F804C09C435FEA00
:100CD0008C3C00D51C433C60084F083F3C68D1F871
:100CE00004C09C435FEACC3C00D51C433C60521CD2
:100CF000102AFFF42FAFBDE8F88F0000083C014038
:100D0000443802400030014000000240000402402C
:100D100000080240000C0240001002400014024093
:100D200000180240001C02400069084000D0012069
:100D300070470AB1816170470904FBE70148806888
:100D4000704700003800002070B5040025D094F8EA
:100D50003D00002520B984F83C50204600F04CFAB4
:100D6000242084F83D002068016821F00101016021
:100D70002068016841F4004101602068016821F4A5
:100D80000041016000F0A0FB4D4A6168914201D82A
:100D90004C4900E04C49884201D2012070BD4B49CA
:100DA0002368B0FBF1F15E6826F03F060E435E60FB
:100DB0006368934206D94FF4967359434FF47A739C
:100DC000B1FBF3F12368491C1E6A26F03F0631434C
:100DD00019626168914210D84900401EB0FBF1F2DF
:100DE000521CC2F30B02042A01D2042022E0B0FB01
:100DF000F1F0401CC0F30B001CE0A268F2B301EB61
:100E0000C10303EB0116431EB3FBF6F35B1C43F473
:100E100080431B0549D092B301EBC10202EB0111E3
:100E2000401EB0FBF1F0401CC0F30B0040F48040CA
:100E300040F400402168CA694CF6FF739A4310439E
:100E4000C861D4E9071001432068026822F0C0029B
:100E500011430160D4E9030101432068826848F22C
:100E6000FF339A4311438160D4E9050108432168A7
:100E7000CA6822F0FF021043C86001E00EE016E0ED
:100E80002068016841F0010101602564202084F898
:100E90003D00256384F83E50002070BD01EB410603
:100EA000431EB3FBF6F35B1CB3E70120C2E701EB83
:100EB0004101401EB0FBF1F0401CC0F30B00B7E74E
:100EC000A086010080841E0000093D0040420F0002
:100ED0002DE9FF4F83B09A46DDE91197934604460A
:100EE000DDF84080FFF72AFF054694F83D002028F2
:100EF00070D11923012271492046009501F02EFF7F
:100F00000028F5D194F83C00012863D0012084F832
:100F10003C0020680168C90703D1016841F0010164
:100F200001602068016821F400610160222084F8DA
:100F30003D00402084F83E0000262664C4F824804A
:100F4000A4F82A90608D20855D48E062CDE90075A7
:100F500053465A462046049901F0B4FD00287CD13E
:100F6000208DD0B1012821D00228206824D04169E9
:100F700080690090208D032869D801282BD0514921
:100F800002283B464FF00002009559D08846204683
:100F900001F0E4FE002860D13CE0206841698169ED
:100FA0000091016841F40071016077E020680168F8
:100FB00021F480610160F0E7016821F48061016043
:100FC0002068016841F4006101602068416980691E
:100FD000009063E06FE02A463946204601F03DFF6D
:100FE00098BB20680069616A08704EE0206801685B
:100FF00041F40071016020680069616A0870606AEC
:10100000401C6062218D491E2185618D491E6185CC
:10101000216838E02068016821F48061016020685F
:101020000069616A0870606A401C6062208D401E21
:101030002085608D401E60853B460022414600951C
:10104000204601F08BFE00B9D0E706E0FFE72A4614
:101050003946204601F001FF18B1012007B0BDE874
:10106000F08F20680069616A0870606A401C6062E5
:10107000218D491E2185618D491E618521684A693E
:10108000D24352070AD409690170606A401C606249
:10109000208D401E2085608D401E6085208D00289B
:1010A0007FF468AF202084F83D0084F83E6084F827
:1010B0003C600020D2E70220D0E7000002001000D0
:1010C0000000FFFF040001002DE9FF4F83B09A46A6
:1010D000DDE9119793460446DDF84080FFF72EFEC8
:1010E000054694F83D0020287FD11923012240496C
:1010F0002046009501F032FE002876D194F83C009D
:10110000012872D0012084F83C0020680168C907DA
:1011100003D1016841F0010101602068016821F4F8
:1011200000610160212084F83D00402084F83E00E9
:1011300000262664C4F82480A4F82A90608D2085B7
:101140002C48E062CDE9007553465A462046049982
:1011500001F036FD70B930E02A463946204601F0EC
:10116000AFFE58B1206C042804D12068016841F416
:1011700000710160012007B0BDE8F08F606A21684E
:1011800000780861606A401C6062218D491E89B246
:101190002185628D521E628522685369DB435B079D
:1011A0000BD469B100781061606A401C6062208DC8
:1011B000401E2085608D401E6085208D0028CBD18B
:1011C0002A463946204601F0A3FD0028CAD154F82A
:1011D0003D0B016841F400710160202004F81E09F4
:1011E000E67766770020C6E7FFE70220C3E7000046
:1011F000020010000000FFFF10B586B00446142165
:101200006846FFF746F81349206888421FD1124804
:101210000021026842F0200202600068122200F001
:10122000200005900320CDE90210CDE90002042042
:10123000049069460948FFF77FFC074810300168B1
:1012400041F480010160006800F48000059006B060
:1012500010BD000000580040303802400014024029
:10126000024881680278114481607047380000208C
:101270000B4810B5016841F400710160016841F448
:1012800080610160016841F480710160032000F019
:101290006FF80F2000F006F800F024F8002010BDD1
:1012A000003C024070B50D4D04464FF47A71287829
:1012B000B1FBF0F00A490968B1FBF0F000F00AFB5D
:1012C00048B9102C07D200222146501E00F030F8F9
:1012D00000206C6070BD012070BD0000380000204F
:1012E000440000200A4808B5016841F480410160CB
:1012F000006800F4804000900548001F016841F03C
:1013000080510160006800F08050009008BD00002E
:1013100044380240002809DB00F01F0201219140FF
:101320004009800000F1E020C0F800117047000083
:10133000F0B40E4B1B680C46C3F30223C3F1070540
:10134000042D00D90425191D072901D2002300E02E
:10135000DB1E012606FA05F1491E214099409E40F8
:10136000761E16403143F0BC02F0AEBF0CED00E03B
:10137000064900F0070208684FF6FF03184040EAEC
:101380000220034A10430860704700000CED00E0A3
:101390000000FA052DE9F0470E46050065D0DFF89C
:1013A0001481D8F80000F7B200F00700B04207D26D
:1013B00088F80070D8F8000000F00700B04254D15F
:1013C00028683D4C810712D5400703D5206840F4BA
:1013D000E05020602878000703D5206840F4604082
:1013E00020602068A96820F0F00008432060287879
:1013F000C0072DD0304968680839012812D002286A
:1014000013D0032811D00968890700292DDA216833
:1014100021F0030101432160FFF790FC814641F276
:10142000883A0EE009688903EFE709688901ECE76B
:10143000FFF784FCA0EB0901514502D90320BDE868
:10144000F0872068696800F00C00B0EB810FEFD1E5
:10145000D8F80010404601F00701B14207D90770E3
:10146000006800F00700B04201D00120E7E72878CB
:10147000400705D52068E96820F4E0500843206063
:101480002878000706D52068296920F4604040EAE2
:10149000C100206000F038F82168084AC1F3031148
:1014A000515CC8400649086006480068FFF7FAFE2C
:1014B0000020C4E7003C024008380240507B00088E
:1014C000440000203C0000200448054900680968E9
:1014D000044AC1F38221515CC84070474400002097
:1014E00008380240607B0008044805490068096824
:1014F000044AC1F34231515CC840704744000020A7
:1015000008380240607B0008154810B5006810F0EC
:101510000C02144813D04110042A0FD0082A0ED10F
:101520000F4C241F2268236802F03F025B0207D59C
:101530002068C0F38810A0FB010106E0084610BD3A
:101540002168C1F38811A1FB00010023FEF738FEDA
:101550002168C1F30141491C4900B0FBF1F010BD05
:10156000083802400024F4002DE9F84F04006ED042
:101570002078DFF84C93C007A9F104054AD009F19F
:1015800004000168C1F38101012908D00068C0F39B
:10159000810002280AD1D9F80000400206D5286847
:1015A000800337D560680028E1D033E06068B0F58B
:1015B000803F10D0B0F5A02F286810D020F48030E4
:1015C0002860286820F4802028606068A8B1FFF7B0
:1015D000B5FB06460DE0286840F48030F4E740F49F
:1015E00080202860F7E700BFFFF7A8FB801B642876
:1015F00073D828688003F7D50CE0FFF79FFB0646F9
:1016000005E000BFFFF79AFB801B6428F0D828682C
:101610008003F7D42078DFF8AC8280074FF0000A0F
:101620003ED5A748001D016811F00C0F08D00068D6
:10163000C0F3810002280BD1D9F80000400207D482
:101640002868800716D5E068012800D112E033E150
:10165000E068B8B10120C8F80000FFF76FFB06464C
:1016600005E000BFFFF76AFB801B0228C0D828688E
:101670008007F7D52868216920F0F80040EAC1000A
:1016800028600DE0C8F800A0FFF758FB064604E00C
:10169000FFF754FB801B02281FD828688007F7D467
:1016A0002078000722D5864F87486169703771B16D
:1016B00001210160FFF742FB064604E0FFF73EFB15
:1016C000801B022809D838688007F7D50EE0C0F8DB
:1016D00000A0FFF733FB064605E082E0FFF72EFB94
:1016E000801B02287DD838688007F7D4207840070F
:1016F00068D5DFF8CCB100270BF13C0BDBF800001C
:10170000C0000BD4DBF8001041F08051CBF8001082
:10171000DBF80000012700F0805000906B4E30682D
:10172000C00510D4306840F480703060FFF706FBCD
:10173000009005E0FFF702FB0099401A022850D8FC
:101740003068C005F6D55E4EA0686C3601280FD013
:101750000528306810D020F001003060306820F09B
:1017600004003060A068B8B1FFF7E8FA00900FE01D
:10177000306840F00100F4E740F004003060F7E723
:10178000FFF7DCFA0099411A41F28830814266D8AD
:1017900030688007F4D50EE0FFF7D0FA009007E03C
:1017A000FFF7CCFA0099411A41F28830814256D8AD
:1017B00030688007F4D42FB1DBF8001021F080519D
:1017C000CBF80010A069C8B33D49091D0968C1F3F1
:1017D000810102294AD00228504607D0C8F860008B
:1017E00000E03CE0FFF7AAFA04463BE04746C8F8B1
:1017F0006000FFF7A3FA064605E000BFFFF79EFA78
:10180000801B02282BD828688001F7D4D4E907016F
:101810000843A16A2E4A490802EB0141626A41EA83
:101820008211084394F82C1040EA0161C9F80010B5
:1018300001203866FFF782FA044606E03EE000BF6A
:10184000FFF77CFA001B022809D828688001F7D529
:1018500034E000BFFFF772FA001B022802D9032010
:10186000BDE8F88F28688001F4D427E00128F7D07C
:10187000D9F80000E26900F4800191421CD1226A8B
:1018800000F03F01914217D147F6C071626A0140F2
:10189000B1EB821F10D1A26A4FF0FF3300F4403148
:1018A00003EB5202B1EB024F06D194F82C1000F07A
:1018B0007060B0EB016F01D00120D1E70020CFE7CD
:1018C0000438024000004742800E4742007000404A
:1018D0000000FFFF10B5401EB0F1807F01D3012052
:1018E00010BD4FF0E02460610F21601702F0ECFCA6
:1018F0000020A06107202061002010BD70477047C4
:1019000010B590F83C20012A22D0012280F83C201A
:10191000CA688C6822F4407222434C6822F48062C8
:1019200022430C6822F4006222430C6922F48052A4
:1019300022434C6922F400522243C969002322F455
:1019400080420A4301684A6480F83C30002010BDA0
:10195000022010BD70B590F83C20012A32D001243D
:1019600080F83C40022280F83D2003685A689D6858
:1019700022F070060A6832435A60134B02689A429A
:1019800014D0B2F1804F11D0104B9A420ED0104BB0
:101990009A420BD00F4B9A4208D00F4B9A4205D077
:1019A0000E4B9A4202D00E4B9A4204D1496825F060
:1019B00080031943916080F83D40002180F83C107D
:1019C000084670BD022070BD0000014000040040C8
:1019D00000080040000C00400004014000400140AD
:1019E0000018004010B5040003D094F83D0010B179
:1019F00007E0012010BD002084F83C00204600F0E4
:101A00001FF8022084F83D00211D206802F0F4F840
:101A1000012084F8460084F83E0084F83F0084F8F2
:101A2000400084F8410084F8420084F8430084F8C0
:101A3000440084F8450084F83D00002010BD0000FB
:101A400008B50068154988420FD11548016841F072
:101A5000010101600068002200F0010000901146C1
:101A60001820FFF765FC182012E00E49884213D1B8
:101A70000B48001F016841F020010160006800224E
:101A800000F02000009011463720FFF751FC37206E
:101A9000BDE80840FFF73EBC08BD00000000014063
:101AA000443802400014004070B5044690F83C00F1
:101AB0000025012817D0012684F83C60022084F814
:101AC0003D002068826822F0770222F47F42826023
:101AD0000868502838D00DDC20284FD005DC90B3A2
:101AE000102811D14AE0022070BD302846D040288D
:101AF0000AD13BE060282FD070280DD0B0F5805F70
:101B000003D0B0F5005F12D0012584F83D600020BD
:101B100084F83C00284670BDCB68D1E901212068DB
:101B200002F0DBF82068816841F0770109E0CB68BA
:101B3000D1E90121206802F0D0F82068816841F4E1
:101B400080418160E1E719E0CA684968206802F0D5
:101B500099F95021206806E0CA684968206802F0B7
:101B6000E3F96021206802F0C2F8CEE7CA6849684C
:101B7000206802F087F940212068F4E722680146D6
:101B80001046F0E72DE9F0410D46040003D094F82B
:101B90003D0018B108E00120BDE8F081002084F884
:101BA0003C00204600F040F8022084F83D00206808
:101BB000816844F2070291438160211D206802F090
:101BC0001BF8226890689169166A2B68AF69034315
:101BD00040F20330814341EA0721A868EF690843D6
:101BE0004FF6FC418843E96840EA07200143286931
:101BF0002F6A000140EA0730084369686D6926F0E2
:101C0000AA0646EA0515294393602268906154F8B4
:101C1000460B0162012004F81F09E0752076E0768A
:101C20002077A0750020B7E7F0B587B004461421EF
:101C30006846FEF72EFB3C493A4E256800223A4C96
:101C40001039C02702233948B54210D1256845F024
:101C500002052560246804F0020405940C6844F031
:101C600001040C600968009701F0010135E0304E75
:101C7000B5421DD1206840F004002060206800F0CB
:101C800004000590086840F008000860086869468C
:101C900000F0080005904FF440500090CDE901326B
:101CA0002448CDE9032300BFFEF746FF07B0F0BD8F
:101CB000DFF884C00326654516D1256845F0080580
:101CC0002560246804F0080405940C6844F00104BD
:101CD0000C600968009601F00101CDE90132CDE9FF
:101CE000043103926946DFE714488542DED10E488D
:101CF000001D046844F002040460006800F0020063
:101D00000590086840F00400086008680097CDE975
:101D1000013200F00400CDE90460694603920848EE
:101D2000C2E70000000400404038024000000240CA
:101D300000080040000C0240000C0040000401407C
:101D40000008024070B590F83E60044690F83F509D
:101D500090F8423090F84320022021B104290ED09F
:101D6000012E1BD114E0012E18D1012B16D184F8BD
:101D70003E0084F8420001220021206820E0012D6D
:101D80000CD1012A0AD184F83F0084F8430014E002
:101D9000012D03D1012B01D1012A01D0012070BDF9
:101DA00084F83E0084F83F0084F8420084F8430041
:101DB00001220021206801F083FF01220421206814
:101DC00001F07EFF2068016841F001010160002000
:101DD00070BD000070B5264D01682A68914230D16F
:101DE000007F01282DD1234C607858B3012828D1D9
:101DF0000021284600F0A1FBE0802868016A21F05C
:101E00000A0101622868016A01620021284600F087
:101E100035F9E088A1888842A0EB010001D200F5E5
:101E2000803080B2608000EB00106421B0FBF1F0E4
:101E3000C1B211482170017010A002F01DFA0020FB
:101E4000607070BD00210A4800F077FBA080286810
:101E5000016A21F00A0101622868016A41F0020169
:101E600001620021024800F009F90120E8E70000C2
:101E70004C0300203000002000000020BEE0C0EB3A
:101E8000203D202564636D200D0A00002DE9F041FE
:101E9000054690F83C0000260C46012810D0012091
:101EA00085F83C0072B1042A1CD0082A2CD00C2AD8
:101EB00050D00126002085F83C003046BDE8F08176
:101EC0000220FBE7D4E90012E368286801F0ECFF88
:101ED0002868816921F00C01816128688169A26804
:101EE00011430FE0D4E90012E368286802F02EF8ED
:101EF0002868816921F44061816128688169A2684C
:101F000041EA02218161D5E72868D4E9002C277BCA
:101F1000016A21F480710162C169036A21F0030141
:101F200041EA0C0121F0F00C39074FF420674CEA2C
:101F3000116123F4206307EA02221A43C16102629D
:101F40002868C16921F00C01C1612868C169A268D3
:101F5000114328E02868D4E90027E168036A23F4E4
:101F600080530362D0F81CC0036A2CF4407C4CEA16
:101F700007274FF6FF7C27F470470CEA01313943FD
:101F80004FF4204723F4204307EA02321A43C16189
:101F900002622868C16921F44061C1612868C16991
:101FA000A26841EA0221C16184E710B5040003D0B0
:101FB00094F83D0010B107E0012010BD002084F826
:101FC0003C00204600F01EF8022084F83D00211D50
:101FD000206801F011FE012084F8460084F83E00DC
:101FE00084F83F0084F8400084F8410084F84200FF
:101FF00084F8430084F8440084F8450084F83D00E8
:10200000002010BD10B586B0044614216846FEF7C6
:1020100040F917492068884227D1164800210268F4
:1020200042F480320260006800F48030059011486C
:102030001438026842F010020260006800F01000DC
:102040000590202000900220CDE901010320CDE978
:10205000031069460848FEF76FFD0022114618205C
:10206000FFF766F91820FFF755F906B010BD00001C
:1020700000400140443802400010024030B50446A0
:10208000002551B104290DD0082910D094F8410041
:1020900094F84520012811D10EE094F83E0094F800
:1020A0004220F7E794F83F0094F84320F2E794F8D1
:1020B000400094F84420EDE7012A01D0012030BD12
:1020C000022059B1042912D0082919D084F84100FE
:1020D00084F845000C2944D0012540E084F83E00F6
:1020E00084F842002068C26842F0020210E084F8DE
:1020F0003F0084F843002068C26842F0040207E011
:1021000084F8400084F844002068C26842F0080265
:10211000C2600122206801F0D3FD14492068884282
:1021200014D0B0F1804F11D0114988420ED011491E
:1021300088420BD01049884208D01049884205D007
:102140000F49884202D00F49884204D1816801F0CA
:102150000701062903D0016841F00101016028460A
:1021600030BD2068C26842F01002D1E70000014093
:102170000004004000080040000C00400004014042
:10218000004001400018004070B504460068016935
:102190004FF00005C943890715D4C168C9438907B1
:1021A00011D4E91E01610120207720688069800731
:1021B000204602D0FFF70EFE04E000F0C3F82046F0
:1021C00000F055F9257720680169C943490717D4FC
:1021D000C168C943490713D46FF0040101610220AB
:1021E00020772068806910F4407F204602D0FFF7F6
:1021F000F1FD04E000F0A6F8204600F038F925775C
:1022000020680169C943090716D4C168C943090791
:1022100012D46FF008010161042020772068C069A2
:102220008007204602D0FFF7D5FD04E000F08AF8D1
:10223000204600F01CF9257720680169C943C906CA
:1022400017D4C168C943C90613D46FF010010161E6
:10225000082020772068C06910F4407F204602D013
:10226000FFF7B8FD04E000F06DF8204600F0FFF83D
:10227000257720680169C943C90708D1C168C943E6
:10228000C90704D1891E0161204600F055F9206874
:102290000169C943090609D4C168C943090605D4BF
:1022A0006FF0800101612046FFF728FB206801697B
:1022B000C943490609D4C168C943490605D46FF02A
:1022C00040010161204600F04DF920680169C943D1
:1022D00089060BD4C168C943890607D46FF0200171
:1022E00001612046BDE87040FFF709BB70BD0000EA
:1022F00010B586B0044614216846FDF7CAFF0E49A2
:102300002068884216D10D480021026842F0100270
:102310000260006800F0100005904FF4D440009077
:102320000220CDE901010120CDE9031069460448EE
:10233000FEF702FC06B010BD00000140303802403C
:1023400000100240704770B5044690F83C0000262B
:102350000D4601280FD0012084F83C006AB1042A00
:102360001DD0082A2FD00C2A3FD00126002084F847
:102370003C00304670BD022070BD206801F0C0FCFA
:102380002068816941F0080181612068816921F03C
:1023900004018161206881692A69114311E0206884
:1023A00001F0DEFC2068816941F4006181612068F0
:1023B000816921F480618161206881692A6941EA2B
:1023C00002218161D2E7206801F000FD2068C16927
:1023D00041F00801C1612068C16921F00401C161B7
:1023E0002068C1692A69114311E0206801F022FDCB
:1023F0002068C16941F40061C1612068C16921F4AC
:102400008061C1612068C1692A6941EA0221C16114
:10241000ACE710B5040003D094F83D0010B107E01C
:10242000012010BD002084F83C00204600F01EF87A
:10243000022084F83D00211D206801F0DDFB012011
:1024400084F8460084F83E0084F83F0084F8400099
:1024500084F8410084F8420084F8430084F8440082
:1024600084F8450084F83D00002010BD7047704797
:1024700010B50446022249B104290ED0082913D010
:1024800094F84100012816D0012010BD94F83E00B8
:102490000128F9D184F83E200FE094F83F0001288C
:1024A000F2D184F83F2008E094F840000128EBD1F5
:1024B00084F8402001E084F841200122206801F0E6
:1024C000FFFB16492068164A884201D0904203D18A
:1024D000436C43F4004343642068884213D0B0F156
:1024E000804F10D00F4988420DD00F4988420AD042
:1024F0000E49884207D0904205D00D49884202D04B
:102500000C49884204D1816801F00701062903D0F3
:10251000016841F001010160002010BD0000014090
:10252000000401400004004000080040000C00408E
:10253000004001400018004070470246002041B1B1
:10254000042909D008290AD00C2901D11068006C8F
:1025500070471068406B70471068806B7047106858
:10256000C06B70477047704770470000F8B501684E
:1025700004460868CA684B6910F00F0F4FF0000559
:102580005AD003F0010602F49077374365D0C107B3
:1025900005D0D10503D5216C41F00101216441072B
:1025A00005D5D90703D0216C41F0020121648107D0
:1025B00005D5D90703D0216C41F00401216401073E
:1025C00007D502F02001314303D0216C41F008010E
:1025D0002164216C00293BD0800604D5900602D5E9
:1025E000204601F012FD20684069216CC0F3801084
:1025F00001F00801014320462BD001F0DFFC2068E8
:102600004069400621D52068143050E8001F21F0B1
:10261000400140E80012002AF5D1A06BA8B16C4936
:102620000165A06BFEF763FA002811D0A06B016D65
:1026300001B0BDE8F040084783060ED593060CD5DF
:102640002046BDE8F84001F0E0BC2046FFF78CFFD3
:10265000F8BDFFF789FF2564F8BD266B2023012E06
:1026600079D1C60677D5D60675D508684868009032
:102670004869400640D5A16B086840680004000C1A
:10268000EAD0A28D8242E7D9E085C869B0F5807FA3
:102690002DD020680C3050E8001F21F4807140E8F4
:1026A0000012002AF5D12068143050E8001F21F0F4
:1026B000010140E80012002AF5D12068143050E8EA
:1026C000001F21F0400140E80012002AF5D184F8F3
:1026D0003E30256320680C3050E8001F21F01001C7
:1026E00040E80012002AF5D1A06BFEF7B7F9A08DE3
:1026F000E18D401A81B229E0A08DE18D401A81B2AE
:10270000E08D0028A8D00029A6D020680C3050E821
:10271000002F22F4907240E80026002EF5D12068A8
:10272000143050E8002F22F0010240E80026002E6D
:10273000F5D184F83E30256320680C3050E8002F36
:1027400022F0100240E80023002BF5D12046FFF7CD
:102750000AFFF8BDFFE705062BD5150629D594F825
:102760003D002128F5D1A068B0F5805F01D1206936
:10277000B0B1206A411C2162216800784860E08C79
:10278000401E0004000CE084E3D12068C16821F001
:102790008001C1602068C16841F04001C160D8E794
:1027A000206A0088C0F308004860206A801C20620C
:1027B000E5E74006CDD55006CBD5CA68204622F0C5
:1027C0004002CA6084F83D3000F063F9C1E70000C0
:1027D000AD3F000870B5040004D094F83D0000251A
:1027E00010B106E0012070BD84F83C50204600F096
:1027F00023F8242084F83D002068C16821F40051AA
:10280000C160204601F062FC2068016921F490411A
:1028100001612068416921F02A0141612068C16895
:1028200041F40051C1602564202084F83D0084F803
:102830003E00002070BD0000F0B587B004461421B2
:102840006846FDF726FD5A49584823680024584A2F
:10285000103902250326834233D1106840F48010DA
:102860001060106800F480100590086840F00400C3
:102870000860086800F004000590086840F008004F
:102880000860086802AB00F0080005908814CDE9E4
:102890000005082783E8D00069464648FEF74CF952
:1028A0000420CDE9000502AB694683E8D000424828
:1028B000FEF742F9002211463520FEF739FD35209A
:1028C00027E0DFF8F8C007273D48634525D1384A9F
:1028D000121D136843F010031360126802F0100217
:1028E00005920A6842F001020A60096802AA01F032
:1028F000010105914FF4C061CDE9001582E8D000D7
:102900006946FEF719F9002211462520FEF710FD51
:102910002520FEF7FFFC07B0F0BDDFF8A8C0634537
:102920001FD1136843F400331360126802F40032BD
:1029300005920A6842F001020A60096802AB01F0E0
:10294000010105910C21CDE9001583E8D00069460D
:10295000FEF7F2F8002211462620FEF7E9FC2620B9
:10296000D7E719488342D6D1106840F48020106020
:10297000106800F480200590086840F002000860AC
:10298000086802AB00F0020005904FF44060CDE90A
:10299000000583E8D00069460C48FEF7CDF8002218
:1029A00011462720FEF7C4FC2720B2E70050004064
:1029B0004038024000080240000C02400010014074
:1029C0000000024000440040004800400004024073
:1029D0002DE9F84F044690F83E009A4616460D46FB
:1029E000202853D1FDB1F6B194F83C0001284DD018
:1029F000012084F83C0000272764222084F83E0050
:102A00002763FEF79BF9A6858146E685A0684FF40B
:102A10008058404501D1206940B12E465FF0000545
:102A200084F83C7027E00120BDE8F88F0026F7E726
:102A30004B46002220212046CDF800A001F0CCFB1F
:102A400008B10320F0E726B1A06840451BD038B19B
:102A500008E020684068C0F3080025F8020B07E092
:102A6000206980B12068406800F07F0006F8010B03
:102A7000E08D401EE085E08D0028D9D1202084F82B
:102A80003E000020D0E720684068EFE70220CBE757
:102A900070477047FEE701684A69D24352050FD478
:102AA0006FF480624A61002140F8301F2022427397
:102AB0008173026942F004020261017301207047D0
:102AC000002070472DE9F84F0446006889460B9DA9
:102AD00001689846174641F48061016020680168EA
:102AE00041F48071016000954FF0011B00225946AE
:102AF00020460A9B00F032F94FF4007A40B120687A
:102B00000068C00501D5C4F840A00320BDE8F88FD7
:102B1000216809F0FE0008612B46284920460A9AE0
:102B200000F050F9F0BB20684169806900902A46A6
:102B300020460A9900F0C4F940B1206C04283AD12B
:102B40002068016841F40071016034E0FEB2B8F120
:102B5000010F09D02168380A08612A4620460A99DF
:102B600000F0AEF90028E8D1206806612A46204628
:102B70000A9900F0A5F90028DFD12068016841F426
:102B80008071016000950022594620460A9B00F0A2
:102B9000E5F80028B3D1216809F0FF0040F00100FA
:102BA000086100E007E02B46044920460A9A00F03D
:102BB00009F90028AAD00120A8E7000002000100BE
:102BC0002DE9F843044600680D46DDE908970168E1
:102BD0009846164641F4807101604B4600224FF042
:102BE00001112046009700F0B9F848B1206800684C
:102BF000C00502D54FF4007020640320BDE8F883BF
:102C0000216805F0FE0008613B464A46154920460A
:102C100000F0D8F888B920684169806900903A4688
:102C20004946204600F04CF948B1206C042804D1F4
:102C30002068016841F4007101600120DEE7F5B20F
:102C4000B8F1010F09D02168300A08613A464946B7
:102C5000204600F035F90028E7D120680561002002
:102C6000CCE700000200010010B50E4C0122042147
:102C70002046FEF75EF8012202212046FEF759F8B1
:102C800000F044F9002204212046FEF752F800F03B
:102C90003DF9002202212046FEF74BF8BDE8104026
:102CA00000F034B90004024010B50A4C002204219F
:102CB0002046FEF73EF8012202212046FEF739F8B1
:102CC00000F024F920460122BDE810400421FEF75F
:102CD00030B800000004024010B50C4C0122042161
:102CE0002046FEF726F800F011F9012202212046C5
:102CF000FEF71FF800F00AF9002202212046FEF735
:102D000018F8BDE8104000F001B9000000040240CE
:102D100070B516460D4604460DE02046FFF7BBFE93
:102D200008B1012070BD681C05D0FEF707F8801BB4
:102D3000A84207D835B120684069C0434007ECD4A9
:102D4000002070BD002044F8300F20216173A07373
:102D5000216941F0200121612073E2E72DE9F0476C
:102D60001E4690460D460446C1F30747DDF8209005
:102D700008E0701C06D0FDF7E1FFA0EB0900B042AF
:102D80000FD876B12068012F18D0806925EA00009D
:102D90000004000C14D000214145EAD00020BDE819
:102DA000F087002044F8300F20216173A07321695F
:102DB00041F02001216120730120F0E74069E5E73F
:102DC0000121E9E72DE9F0479A4691460E4604466F
:102DD00000254FF02008C1F3074725E0206840692F
:102DE000C043400514D42068016841F400710160BB
:102DF00021686FF480604861256384F83D8084F821
:102E00003E50206C40F00400206484F83C501FE0E9
:102E1000B9F1FF3F08D0FDF791FFA0EB0A0149454A
:102E20000CD8B9F1000F09D02068012F13D08069A8
:102E300026EA00000004000C0BD0CFE744F8305F16
:102E400084F80D80A573206940F02000206125736F
:102E50000120BDE8F0874069EAE72DE9F04100254F
:102E600090460E460446202717E04069C043C0063E
:102E70000CD454F8301B6FF01000486144F810591E
:102E80006777A577206A2062257717E0FDF756FF60
:102E9000A0EB0800B04208D83EB120684169C943A0
:102EA0004906E2D40020BDE8F08144F8305F677342
:102EB000A573206940F02000206125730120F2E70E
:102EC00070B516460D4604460DE02046FFF7E3FDBB
:102ED00008B1012070BD681C05D0FDF72FFF801BD5
:102EE000A84207D835B120684069C0430006ECD439
:102EF000002070BD002044F8300F20216173A073C2
:102F0000216941F0200121612073E2E70320401E86
:102F1000C0B2FCD270477CB514460D4606466B46DF
:102F200006223B21682000F029F800280BD1BDF8CB
:102F3000001049BA3180BDF8021049BA2980BDF8A5
:102F4000041049BA21807CBD7CB514460D46064666
:102F50006B4606224321682000F010F800280BD1B0
:102F6000BDF8001049BA3180BDF8021049BA298075
:102F7000BDF8041049BA21807CBD00003EB5400078
:102F8000CDE900320A466424014602940123034835
:102F9000FDF79EFF002800D001203EBD4801002023
:102FA0002DE9FF411A4A111F081F03F037FD0028C1
:102FB0002CD1174A1A3A911E881EFFF7ACFF144A0B
:102FC000143A911E881EFFF7BFFFDFF84480A8F176
:102FD0002408D8F82400FDF7FCFA06460F46D8F876
:102FE0002000FDF7F6FA04460D46D8F81C00FDF760
:102FF000F0FA8DE8F00041EC100B06A053EC102B1A
:1030000001F03AF9BDE8FF4100F01CBBBDE8FF81CB
:1030100024000020C8FDD6E1BDC7B6C8A3BA256606
:103020002D25662D25660D0A000000003EB54000E6
:10303000CDE900320A466424014602940123034884
:10304000FEF742F8002800D001203EBD48010020D4
:103050002DE9F04786B014216846FDF71AF951486A
:103060000025016841F010010160016801F01001C4
:103070000591016841F020010160016801F0200123
:103080000591016841F080010160016801F0800153
:103090000591016841F001010160016801F0010141
:1030A0000591016841F002010160016801F002012F
:1030B0000591016841F008010160016801F0080113
:1030C0000591016841F004010160016801F004010B
:1030D0000591016841F0400101600068324F00F045
:1030E0004000059000224FF4A2613846FDF721FE12
:1030F000DFF8B8800022FE214046FDF71AFEDFF817
:10310000B09048F23206002231464846FDF711FEE3
:10311000DFF8A0A000224FF470415046FDF709FEF1
:103120000F20CDE900050124694602943846FDF7D9
:1031300003FD1020CDE900040220CDE902406946DC
:103140003846FDF7F9FCFE208DE83100694640461F
:103150000395FDF7F1FC4FF4A060CDE9000469464A
:103160003846CDE90245FDF7E7FCCDE90064694644
:103170004846CDE90245FDF7DFFC2003CDE9000418
:1031800069465046CDE90245FDF7D6FC4FF4604054
:103190008DE83100694650460395FDF7CDFC06B039
:1031A000BDE8F087303802400010024000040240C1
:1031B000000C0240001802400D4810B50B49016098
:1031C0000C49416000214FF480428160C0E9031244
:1031D00041618161C1610162FDF7B6FD002803D044
:1031E000BDE81040FDF738BC10BD0000005800409D
:1031F00048010020A086010010B596B000240F946D
:1032000010941194129413941C2168461494FDF7A1
:1032100040F8202107A8FDF73CF835483349016004
:10322000A721C0E901144FF47A71C0E90314446185
:103230008461FEF7D7FB08B1FDF70EFC4FF4805018
:103240000F900FA92A48FEF72FFC08B1FDF704FCE8
:103250002748FFF7DEF808B1FDF7FEFB139413A92A
:1032600023481494FEF776FB08B1FDF7F5FB6020C8
:1032700000904FF49670CDE90104039404940594F2
:10328000002269461A480694FFF75DF808B1FDF779
:10329000E3FB042269461648FFF755F808B1FDF72D
:1032A000DBFB082269461248FFF74DF808B1FDF72D
:1032B000D3FB0C2269460E48FFF745F808B1FDF72D
:1032C000CBFB0794089409944FF400500A94CDE97D
:1032D0000B4007A906480E94FEF712FB08B1FDF754
:1032E000BBFB0348FFF704F816B010BD0000014017
:1032F0009C01002010B58CB024216846FCF7C9FF62
:1033000000241548099413490A94C0E900144FF6A3
:10331000FF71C0E90241046184610120CDE900042C
:10332000CDE902040494CDE90540079469460A48B2
:103330000894FEF727FC08B1FDF78EFB099409A954
:1033400005480A94FEF706FB002801D0FDF784FB30
:103350000CB010BD00040040E401002010B58CB09A
:1033600024216846FCF795FF002415480994134969
:103370000A94C0E900144FF6FF71C0E902410461EC
:1033800084610120CDE90004CDE902040494CDE973
:103390000540079469460A480894FEF7F3FB08B114
:1033A000FDF75AFB099409A905480A94FEF7D2FAD9
:1033B000002801D0FDF750FB0CB010BD0008004004
:1033C0002C02002010B58CB024216846FCF761FF68
:1033D00000241548099413490A94C0E900144FF6D3
:1033E000FF71C0E90241046184610120CDE900045C
:1033F000CDE902040494CDE90540079469460A48E2
:103400000894FEF7BFFB08B1FDF726FB099409A954
:1034100005480A94FEF79EFA002801D0FDF71CFB30
:103420000CB010BD000C0040740200201CB500243C
:103430000E4800940C49019401605321C0E9011425
:1034400042F20F718461C160FEF7CCFA08B1FDF75A
:1034500003FB0094694605480194FEF77BFA0028B7
:1034600001D0FDF7F9FA1CBD00140040BC02002099
:1034700010B58CB024216846FCF70BFF00241648D9
:10348000099414490A94C0E900144FF6FF71C0E989
:1034900002410461446184610120CDE90004CDE969
:1034A00002040494CDE90540079469460A4808944B
:1034B000FEF768FB08B1FDF7CFFA099409A90648A1
:1034C0000A94FEF747FA002801D0FDF7C5FA0CB0C0
:1034D00010BD000000040140040300201FB50024BB
:1034E00012480094019402940F490394016040F241
:1034F0008F61C0E901144FF6FF71C0E903148461C4
:10350000FEF753FD08B1FDF7A7FA0120CDE9004011
:1035100002940022694605480394FEF7B7FC002890
:1035200001D0FDF799FA1FBD004001404C03002077
:103530000C4810B50A4901604FF416514160002152
:1035400081600C22C160C0E904128161C161FFF792
:1035500041F9002803D0BDE81040FDF77DBA10BD49
:1035600000500040940300200C4810B50A49016047
:103570004FF4E1314160002181600C22C160C0E95B
:1035800004128161C161FFF725F9002803D0BDE86D
:103590001040FDF761BA10BD00100140D8030020B3
:1035A0000C4810B50A4901600B4941600021816057
:1035B0000C22C160C0E904128161C161FFF70AF900
:1035C000002803D0BDE81040FDF746BA10BD00004A
:1035D000004400401C04002020A107000C4810B546
:1035E0000A4901604FF416514160002181600C22AC
:1035F000C160C0E904128161C161FFF7EBF80028E6
:1036000003D0BDE81040FDF727BA10BD00480040C8
:1036100060040020FEE7FEE730B40021084B0A46B4
:103620005FF0000003EBC004401CC0B2625480286D
:10363000F8D3491CC9B20829F2D330BC00F0AEB8A7
:10364000A404002010B500218D2000F00AFA00210A
:10365000142000F006FA0021BDE81040AF2000F071
:1036600000BA000030B5CC0801F0070301259D40E9
:10367000EBB2064D05EBC005C808285C0AB118433B
:1036800002E063EA0000C043285530BDA4040020D6
:1036900010B53D4C002204212046FDF74AFBC8200E
:1036A000FDF738FA012204212046FDF742FB0021F4
:1036B000AE2000F0D6F90021084600F0D2F9002132
:1036C000102000F0CEF90021402000F0CAF90021BE
:1036D000812000F0C6F90021CF2000F0C2F90021BE
:1036E000A12000F0BEF90021C82000F0BAF90021A5
:1036F000A62000F0B6F90021A82000F0B2F90021C0
:103700003F2000F0AEF90021D32000F0AAF90021FB
:10371000084600F0A6F90021D52000F0A2F900210A
:10372000802000F09EF90021D92000F09AF90021B4
:10373000F12000F096F90021DA2000F092F9002142
:10374000122000F08EF90021DB2000F08AF9002120
:10375000302000F086F90021202000F082F90021BD
:10376000022000F07EF900218D2000F07AF900217E
:10377000142000F076F9FFF74FFF0021BDE810405C
:10378000AF2000F06EB900000000024002460120A8
:1037900000E05043491EC9B2FBD2704770B5184EC5
:1037A000002400BF04F1B000C0B2002100F059F9BC
:1037B0000021084600F055F90021102000F051F9D1
:1037C000FFF752FA782000F08BF9FFF785FA4020D6
:1037D00000F086F9FFF780FA5FF0000506EBC50000
:1037E000005D00F07DF9FFF777FA6D1CEDB2802DDA
:1037F000F4D3FFF759FA641CE4B2082CD2D370BD9D
:10380000A40400207CB50124082329A21946142011
:10381000009400F008F90825274ECDE9005496EDF4
:10382000000A03232946BCEEC00A3C2010EE102AF1
:1038300000F0C2F81421082320A20846009400F0EA
:10384000F2F8CDE9005496ED010A03231421BCEEF1
:10385000C00A3C2010EE102A00F0AEF8082319A28E
:1038600020211420009400F0DEF8CDE9005496EDFC
:10387000020A03232021BCEEC00A3C2010EE102ACD
:1038800000F09AF8082311A22C211420009400F0D3
:10389000CAF8CDE9005496ED030A03232C21BCEEAF
:1038A000C00A3C2010EE102A00F086F87CBD000013
:1038B0007370656564313A00880000207370656537
:1038C00064323A007370656564333A0073706565FD
:1038D00064343A002DE9FC4F1C460E4682468B4666
:1038E0000190082B0ED0600700D0012000EBD4001F
:1038F000610810FB01F0C0B28146203AD0B20090BE
:1039000000204AE00620F7E7082C12D00C2C17D034
:10391000102C1AD0182C43D10098234900EBC0007A
:1039200001EB8001002711F80850E80712D00B9A2C
:1039300013E000981D4900EB400001EB4001F1E766
:1039400000981B4900EB4000EAE71A49009801EB98
:103950000011E7E70B9828B3002231465046FFF7E5
:1039600081FE761C7F1C6D08FFB2F6B2082FDCD3F7
:103970000AF1010000F0FF0A082C0AD00199AAEB15
:103980000100B0EB540F04D10BF108008A4600F09F
:10399000FF0B08F101005E46C0B280464845B3D334
:1039A000BDE8FC8F0122D8E7F4870008687B000897
:1039B000907D0008048200082DE9F84F0025DDE91C
:1039C0000A691F4692468B468046082E00D1022582
:1039D00000241CE0381B401EC1B20A20FFF7D6FEAF
:1039E000BAFBF0F00A21B0FBF1F201FB1200CDF8B6
:1039F000009080B13030C2B205EB560101FB04806B
:103A0000C0B233465946FFF765FF641CE4B2BC42BE
:103A1000E0D3BDE8F88F05EB560101FB0480C0B28E
:103A200033463022EEE72DE9F8411E46154688461A
:103A30000446079F0BE03346414620460097FFF7B8
:103A400049FF082E0AD004EB5600C4B26D1C2A7838
:103A5000A2F120005E28EED9BDE8F881A41DE4B2F1
:103A6000F4E770B50C460546FFF7FEF8782000F045
:103A700037F8FFF731F90CB1402000E0002000F0EA
:103A80002FF8FFF729F9284600F02AF8FFF724F964
:103A9000BDE87040FFF708B99FED0C0A012180EDE9
:103AA000000A9FED0B0A80ED010A9FED0A0A80EDE6
:103AB000020A9FED090A80ED030A017400214161A9
:103AC0008161C1614FF49671016270476666E63F9D
:103AD00000000000CDCC4C3E0000FA447047704717
:103AE00070B5104E05460024280601D5012200E0DD
:103AF000002204213046FDF71CF9FFF707FA0122E6
:103B000002213046FDF715F9FFF700FA00220221E5
:103B10003046FDF70EF96806641C050EE4B2082C69
:103B2000E2D370BD00040240FDF79ABB30B593B0FC
:103B300030216846FCF7ADFB14210CA8FCF7A9FB6B
:103B40001D480025016841F080510160006800F0C7
:103B5000805011901948016841F48041016000686B
:103B6000022400F480401190012000900004019094
:103B70008001CDE9064008AA0420A82182E81300AC
:103B80000B906846FDF7F0FC08B172B6FEE70CA991
:103B90000F2081E831004FF4A0500F904FF4805077
:103BA000109005210CA8FDF7F5FB002801D072B696
:103BB000FEE713B030BD0000403802400070004006
:103BC0000248016841F470010160704788ED00E02F
:103BD00010B50448FEF7D8FABDE810400248FEF7D9
:103BE000D3BA00009C0100204C0300200148FEF7DE
:103BF000CBBA0000BC020020F0B50268254C264D6F
:103C0000264E274F274B4FF0804CA04209D06045ED
:103C100007D0A84205D0B04203D0B84201D09842A4
:103C200004D122F0700E4A6842EA0E02A0421BD074
:103C3000604519D0A84217D0B04215D0B84213D071
:103C4000984211D0184DA8420ED0184DA8420BD062
:103C5000174DA84208D0174DA84205D0164DA842CE
:103C600002D0164DA84203D122F44075CA682A43F7
:103C70004D6922F080022A4302608A68C2620A68A3
:103C80008262A04201D0984201D1096901630121F9
:103C90004161F0BD00000140000400400008004008
:103CA000000C00400004014000400140004401407D
:103CB0000048014000180040001C00400020004067
:103CC00010B501F01F030121046A99408C4304627E
:103CD000016A9A401143016210BD10B5846842EA3E
:103CE000032224F47F440A432243826010BD826889
:103CF00022F070020A4342F0070181607047000021
:103D0000F0B5026A22F001020262036A4268846925
:103D1000124E24F073050C682C4323F002058B68C7
:103D20002B430D4DA84201D0B04205D123F0080726
:103D3000CB683B4323F00403A84201D0B04205D135
:103D40004D6922F4407215438A692A4342608461B6
:103D5000496841630362F0BD000001400004014076
:103D6000F0B5026A22F010020262026A43688469B6
:103D70000D6824F4E64444EA05248D6822F020020C
:103D800042EA05120F4D104EA84201D0B04206D1B2
:103D9000CF6822F0800242EA071222F04002A842D5
:103DA00001D0B04207D14D6923F4406343EA850353
:103DB0008D6943EA850343608461496881630262D7
:103DC000F0BD00000000014000040140F0B5026AAF
:103DD00022F480720262026A4368C46922F40072AB
:103DE00024F073050C68124E2C438D6842EA0522BC
:103DF0000E4DA84201D0B04206D1CF6822F4006235
:103E000042EA072222F48062A84201D0B04207D1E0
:103E10004D6923F4405343EA05138D6943EA0513C2
:103E20004360C4614968C1630262F0BD00000140A3
:103E30000004014030B5026A22F480520262046A32
:103E40004268C3690D6823F4E64343EA05238D689D
:103E500024F4005444EA0534084DA84202D0084D29
:103E6000A84204D14D6922F4804242EA85124260A0
:103E7000C36149680164046230BD00000000014074
:103E80000004014010B5036A046A24F001040462CE
:103E9000846924F0F00444EA021423F00A020A437D
:103EA0008461026210BD000070B5046A24F0010450
:103EB00004628469056A154EB04214D0B0F1804F97
:103EC00011D0134EB0420ED0124EB0420BD0124E53
:103ED000B04208D0114EB04205D0114EB04202D0CF
:103EE000104EB04203D124F00304144301E044F027
:103EF00001041A0724F0F00444EA126225F00A03D0
:103F000001F00A0119438261016270BD00000140A5
:103F10000004004000080040000C00400004014084
:103F2000004001400018004010B5036A23F0100360
:103F300003628369046A23F4704343EA023224F083
:103F4000A00343EA01118261016210BD30B5046A29
:103F500024F0100404628469056A24F4407444EA7D
:103F6000022222F470444FF6FF7202EA0332224327
:103F7000A02425F0A00304EA011119438261016223
:103F800030BD000030B5054C25682B642368DA632A
:103F9000226891632168486330BD00009C010020C5
:103FA0000148FEF7E3BA00009403002010B5806BCF
:103FB0000021C185C184FEF7D7FA10BD01680C311C
:103FC00051E8002F22F4907241E80023002BF5D134
:103FD0000168143151E8002F22F0010241E800236A
:103FE000002BF5D1016B012909D101680C3151E891
:103FF000002F22F0100241E80023002BF5D12021F0
:1040000080F83E1000210163704708B590F83E101B
:10401000222901D0022008BD82684FF480539A42C1
:1040200001D1016921B1816A9A421BD04AB10AE0EB
:104030000268816A5268C2F308020A80816A891C98
:1040400008E0026972B10268526802F07F020A70E9
:10405000816A491C8162C18D491E0904090CC18510
:1040600003D019E002685268F1E70168CA6822F0DB
:104070002002CA600168CA6822F48072CA600168BE
:104080004A6922F001024A61202180F83E10016B4A
:10409000012903D0FEF7FCFC002008BD00210163CC
:1040A00001680C3151E8002F22F0100241E8002392
:1040B000002BF5D101680A68D20602D50A68496862
:1040C0000091818DFEF74FFAE6E7000070B50446D7
:1040D00000680169E26821F44051114301612169DE
:1040E000A068E26908436169114308432168CA680E
:1040F00049F20C639A430243CA6020684169A2698D
:1041000021F440711143416131492068884202D055
:104110003049884202D1FDF7E7F901E0FDF7D4F913
:10412000E2690023192164253226B2F5004F626846
:1041300028D0A0FB0101930F9200FCF741F8014643
:10414000B0FBF5F06FF01802504301EB800006EB76
:104150000010B0FBF5F000F0F002B1FBF5F002EB5F
:104160000012B1FBF5F06FF01803584301EB80002B
:1041700006EB0010B0FBF5F000F00F0021681044D2
:10418000886070BDA0FB010192185B41FCF718F834
:104190000146B0FBF5F00201B1FBF5F06FF018033A
:1041A000584301EB800006EBC000B0FBF5F000F0D7
:1041B000F80002EB4002B1FBF5F0584301EB800040
:1041C00006EBC000B0FBF5F000F00700D6E70000FA
:1041D00000100140001401402DE9F04198461746B7
:1041E0000E460446069D27E0681C25D02DB1FCF73D
:1041F000A5FDA0EB0800A8421ED920680C3050E8AD
:10420000001F21F4D07140E80012002AF5D1206887
:10421000143050E8001F21F0010140E80012002A8C
:10422000F5D1202084F83D0084F83E00002084F879
:104230003C000320BDE8F0812068006836EA0000F9
:1042400004D00020B842CFD00020F3E70120F9E7E6
:104250000148FEF78BB90000D80300200148FEF7A3
:1042600085B900001C0400200148FEF77FB900005A
:1042700060040020FEE700000FB4054B10B503A951
:10428000044A029800F0BCFD10BC5DF814FB00006D
:10429000BD6200088000002003B40198410000982E
:1042A00050EAC12018BF04204A0D18BF40F0010099
:1042B00040F2FF72B2EB515F08BF40F002000128EC
:1042C00008BF052002B070470907090E002804DB6B
:1042D00000F1E02080F80014704700F00F0000F1BA
:1042E000E02080F8141D704770B5C1482DED020B19
:1042F0002DED0E8B82B0119D25F000449FEDBEDBAD
:104300009FEDBFEB84423EDBA4F140511098A1F138
:104310007F6108430FD0BC48844202DC28D110984A
:1043200030B39DED100B02B0BDEC0E8B02B0BDE8BA
:10433000704000F069BC9DED100B53EC1D2B51EC4F
:10434000100BFCF765F89DED100B41EC180B53ECCE
:104350001E2B51EC100BFCF75BF853EC182BFBF702
:10436000B0FF41EC100B02B0BDEC0E8B02B070BD83
:10437000012000F08DFC02B0BDEC0E8B02B0BDE858
:10438000704000F055BCA1489FEDA18B844256DAE5
:104390009DED100BB4F1795F0ADA51EC100BFFF7C9
:1043A0007BFF042808BF00F053FC9DED100BDAE7FB
:1043B00053EC102B51EC100BFCF72AF841EC190BC5
:1043C00095480621B0EE490AF0EE690A784400F0FB
:1043D0009FFB53EC192B51EC100BFCF719F841EC37
:1043E0001A0B8E48B0EE490AF0EE690A04217844AF
:1043F00000F08EFB53EC192B51EC100BFCF708F876
:1044000053EC182BFBF75DFF41EC100B51EC1A0B32
:1044100053EC102BFCF76EF8CDE900019DED000B7D
:1044200053EC102B9DED100B51EC100BFBF7F0FF34
:104430009DED101B53EC112BFBF743FFD2E09DEDDC
:10444000100B51EC100B01F02DFF53EC182BFBF768
:10445000DCFF9FED730BCDE9000153EC102B9DEDBC
:10446000000B51EC100BFBF7D3FF41EC190B6E481E
:104470000621B0EE490AF0EE690A784400F048FBE4
:1044800053EC192B51EC100BFBF7C2FF41EC1B0B4B
:104490006648B0EE490AF0EE690A0421784400F05B
:1044A00037FB53EC192B51EC100BFBF7B1FF53EC1E
:1044B000182BFBF706FF41EC1C0B51EC190B03F01A
:1044C00001FB41EC180B5A489FED5BABA04222DC8C
:1044D00053EC1C2B51EC1B0BFCF70CF8CDE9000145
:1044E0009DED000B51EC180B53EC102BFBF790FFDC
:1044F00053EC182BFBF7E5FE53EC1A2BFBF788FF68
:1045000053EC1D2BFBF77EFF53EC1E2BFBF77DFFBF
:1045100041EC100B5FE08DED008B002000909DEDD5
:10452000000B51EC180B53EC102BFBF7CAFE9DED62
:10453000000B41EC1E0B53EC102B51EC100BFBF756
:1045400067FF53EC192BFBF760FF53EC1E2BFBF7B7
:10455000D1FF41EC190B53EC1C2B51EC1B0BFBF75F
:10456000C9FF41EC1B0B53EC1A2B51EC190BFBF759
:104570004FFF53EC1D2BFBF748FF41EC190B53EC9D
:104580001A2B51EC180BFBF743FF53EC1B2BFBF7DB
:104590003FFF53EC192BFBF735FF9DED000B41EC72
:1045A000180B53EC1A2B51EC100BFBF731FF9FED5E
:1045B000249B53EC192BFBF728FF41EC100B51EC1B
:1045C000180B53EC102BFBF71DFF53EC192BFBF7CB
:1045D0001CFF41EC100B002D3FF7C5AE51EC100B4A
:1045E00081F0004141EC100BBDE60000000000002E
:1045F0000000F03F00000000075C143326A6913C49
:10460000182D4454FB21F93F0000F07F0000E03FEB
:10461000000000000000F03FF0610000FE610000BB
:10462000000000000000E03F426100005061000017
:104630003333EF3F000000000000000000000040A6
:10464000182D4454FB21E93F70B59B482DED020B1A
:104650002DED068B079D25F00044A04218DC9748FD
:10466000844202DC0AD1069840B19DED060BBDECF8
:10467000068B02B0BDE8704000F0C6BA002DCCBF7A
:104680009FED8F0B9FED900BBDEC068B02B070BDC4
:104690008F48A04215DD8F48A042D8BF4FF0FF34AD
:1046A00058DD9DED060B51EC100BFFF7F5FD0428CE
:1046B00008BF00F0CDFA9DED060BBDEC068B02B0F5
:1046C00070BD9DED060B51EC100B01F0EBFDCDE93B
:1046D000060181489FED828BA0423CDD8248A042CA
:1046E0001FDD00249FED82AB9DED060B53EC1A2BD2
:1046F00051EC100BFBF7E5FD9DED060B41EC190BA2
:1047000053EC1A2B51EC100BFBF782FE53EC182BD9
:10471000FBF778FE53EC192BFBF7ECFECDE9060115
:1047200049E09DED060B012453EC182B51EC100BC6
:10473000FBF7C7FD9DED060B41EC190B53EC182B55
:1047400051EC100BFBF75EFE53EC192BFBF7D2FE7E
:10475000CDE906012FE06848A0421FDD02249FED4D
:10476000689B9DED060B53EC192B51EC100BFBF7DE
:104770004FFE53EC182BFBF7A4FD9DED060B41EC0F
:10478000180B53EC192B51EC100BFBF73BFE53ECC1
:10479000182BFBF7AFFECDE906010CE09DED060BF3
:1047A000032453EC102B9FED580B51EC100BFBF72F
:1047B000A1FECDE906019DED060B53EC102B51EC4B
:1047C000100BFBF725FE41EC180B53EC182BFBF7F5
:1047D0001FFE41EC190B4E480621B0EE490AF0EEDF
:1047E000690A784400F094F953EC182B51EC100B43
:1047F000FBF70EFE41EC180B4648B0EE490AF0EE0E
:10480000690A0521784400F083F953EC192B51EC27
:10481000100BFBF7FDFD41EC100B51EC180B53ECAA
:10482000102B002C0EDAFBF74CFD9DED061B53EC14
:10483000112BFBF7EDFD9DED061B53EC112BFBF748
:10484000E4FD35E0FBF73DFD9DED061B53EC112B20
:10485000FBF7DEFD41EC100B2F48784400EBC40061
:1048600090ED001B51EC100B53EC112BFBF7CAFD24
:104870009DED061B53EC112BFBF7C4FD41EC100B17
:104880002648784400EBC40090ED001B51EC100B5F
:1048900053EC112BFBF7B9FD41EC100B002DA2BF1F
:1048A000BDEC068B02B070BD51EC100B81F00041E5
:1048B00041EC100B01E70000000010440000F07F05
:1048C000182D4454FB21F93F182D4454FB21F9BF06
:1048D0000000DC3F0000203E0000F33F000000002D
:1048E000000000000000F03F0000E63F0000000074
:1048F00000000000000000400080034000000000B5
:10490000000000000000F83F000000000000F0BFC1
:10491000925E0000485E0000D25D00008A5D0000EB
:1049200070B56B4E2DED040B2DED028B82B0DDF8D2
:104930001CC0DDE905235C422CF000411C4341EA28
:10494000D474049D22F00040B44205D86C422C433C
:1049500040EAD474B4420BD99DED061B9DED040BC7
:1049600002B0BDEC028B04B0BDE8704000F056B957
:10497000ACF14054A4F17F641C430BD0022404EA40
:10498000AC7444EAD27405439FED538B9FED542BD6
:1049900007D015E09DED040B51EC100B00F010FE5C
:1049A00042E0002C11BF012C9DED040B02B0BDECC8
:1049B000028B04BF04B070BD022C38D0032C3BD056
:1049C0000B439FED491B9FED4A0B0AD0B14218D112
:1049D000B04209D121F0804120F08040079105903C
:1049E0000FE0002A15DA10E0434B7B44002C08BF8F
:1049F00093ED000B0DD0012C10D0022C17D0032CFE
:104A00001AD0B0421DD1002A03DAB0EE410AF0EE0E
:104A1000610A02B0BDEC028B04B070BD93ED000BD7
:104A200051EC100B81F0004141EC100BF1E7B0EEBE
:104A3000480AF0EE680AECE7B0EE420AF0EE620ACD
:104A4000E7E7401A00153C28C8BF8DED000B19DCC4
:104A5000BCF1000FBEBF10F13C0F9FED290B8DED97
:104A6000000B0FDB9DED060B53EC102B9DED040BA3
:104A700051EC100BFBF73EFD01F014FC00F0A0FD23
:104A8000CDE90001002C08BF9DED000BC1D0012C29
:104A900010D0022C9FED1C0B53EC102B9DED000B46
:104AA00051EC100B0DD0FBF7ADFC53EC182BFBF7C2
:104AB000A9FCB9E7019880F0004001909DED000B42
:104AC000A7E7FBF79FFC53EC182BFBF79EFCABE72B
:104AD0000000F07F00000000182D4454FB21094025
:104AE000182D4454FB2109C0182D4454FB21F9BF53
:104AF000182D4454FB21F93FBA5C0000000000006F
:104B00000000000000000000075C143326A6A13C52
:104B100070B504462DED028B4D1E00EBC500B0EEC6
:104B2000408AF0EE608A90ED000B35F0060017D059
:104B300053EC182B51EC100BFBF76AFC41EC100BFB
:104B40006D1E04EBC50090ED001B51EC100B53ECF7
:104B5000112BFBF7B6FB41EC100B35F00600E7D14B
:104B6000022D36D0042D1CD0062D1CBFBDEC028BAF
:104B700070BD53EC182B51EC100BFBF749FC94ED76
:104B80000A1B53EC112BFBF79CFB53EC182BFBF788
:104B90003FFC94ED081B53EC112BFBF792FB41EC0F
:104BA000100B53EC182B51EC100BFBF731FC94ED70
:104BB000061B53EC112BFBF784FB53EC182BFBF774
:104BC00027FC94ED040B53EC102BFBF77AFB41EC24
:104BD000100B53EC182B51EC100BFBF719FC94ED58
:104BE000021B53EC112BFBF76CFB53EC182BFBF760
:104BF0000FFC94ED001B53EC112BFBF762FBBDEC9B
:104C0000028B41EC100B70BD10B553EC102B51EC26
:104C1000100BFBF756FB41EC100B10BD10B553EC1D
:104C2000112B51EC100BFBF74CFB41EC100B10BDA2
:104C30009FED050B10B553EC102B51EC100BFBF74F
:104C400059FC41EC100B10BD0000000000000000FA
:104C50009FED050B10B553EC102B51EC100BFBF72F
:104C6000D7FB41EC100B10BD00000000000000104D
:104C700002E008C8121F08C1002AFAD17047704725
:104C8000002001E001C1121F002AFBD17047000083
:104C90000149086070470000840000202DE9FF5F93
:104CA000DDE90220010DDDF838B0024318D044F6EA
:104CB0001050A1F2FF3141430D140F98012820D06C
:104CC000A5EB0B00401C5FEA000A4FF00004474EC2
:104CD000DFF81C91A046504616D5CAF1000728E01F
:104CE0000F98012443A2012808D0002100980F9BAF
:104CF000C0E90021C0E90243BDE8FF9F6FEA0B0154
:104D0000F4E7CBF10000DEE7074612E0F80707D032
:104D10002246334640464946FBF77AFB80468946A1
:104D20002246334610461946FBF772FB04460E46F0
:104D30007F10002FEAD1DDE90201BAF1000F4246EF
:104D40004B4602DAFBF764FB01E0FBF7D3FB0446BA
:104D50000E460022284BFBF74FFC03D84FF0FF30E4
:104D6000014607E00022254B20463146FBF7A9FA11
:104D7000FBF751FD102409E0002C0ADB0A22002376
:104D8000FBF71EFA019B30321A55641E50EA0102ED
:104D9000F2D1641C019AC4F1110314440F9A012A40
:104DA00003D0012208430DD10AE0084304D00020BB
:104DB0004FF0110B0F9080E7A3EB0B056D1E0DE07C
:104DC0005B4504DD4FF0000205F1010504E003DA64
:104DD0004FF00002A5F10105002AECD000980F99D0
:104DE000C0E90231C0E9004586E700000000244028
:104DF0000000F03F300000000000F0430000E03F02
:104E00002DE9FF4F95B09B468946064600250FE2E7
:104E1000252877D100242746F84A0121059400E08F
:104E2000044316F8013F203B01FA03F01042F7D18A
:104E300030782A2811D06FF02F033078A0F130029B
:104E4000092A16D8059A44F0020402EB820203EB09
:104E500042021044761C0590EFE759F8042B0592A6
:104E6000002A03DA504244F40054059044F002044E
:104E7000761C30782E2816D116F8010F44F0040461
:104E80002A280DD06FF02F023078A0F13003092BC3
:104E900009D807EB870302EB4303C718761CF3E737
:104EA00059F8047B761C30786C280FD006DC4C282F
:104EB00017D068280DD06A2814D104E0742810D0C7
:104EC0007A280FD10DE044F400140AE044F4801471
:104ED00001E044F440147278824202D104F5801457
:104EE000761C761C307866280BD013DC582877D0D7
:104EF00009DC002875D04528F6D04628F4D047288C
:104F00001AD19DE118E0632835D0642879D065284E
:104F100012D195E1702873D008DC6728F1D0692898
:104F20006FD06E280DD06F2806D1B5E073282CD035
:104F3000752875D0782874D05A46179990476D1CFB
:104F400075E1C4F30250022809D003280DD0D9F826
:104F5000001004280DD00D6009F1040967E1D9F8AB
:104F60000010EA17C1E90052F6E7D9F800100D80E9
:104F7000F2E70D70F0E719F8041B8DF8001000201F
:104F80008DF80100EA46012003E059F804AB4FF028
:104F9000FF3061074FF0000102D40DE008F101017C
:104FA0008846B9420FDA8045F8DB1AF80810002964
:104FB000F4D108E008F1010188468142FADB1AF8D1
:104FC00008100029F6D105985B46A0EB080721469A
:104FD0003846179A00F094FA284400EB080507E0D9
:104FE0004DE029E10DE01AF8010B5A461799904758
:104FF000B8F10108F7D25B4621463846179A13E10B
:1050000042E00A220092C4F302524FF0000A022A40
:1050100008D059F804CB032A4FEAEC710AD00DE00E
:1050200029E02AE009F1070121F00702F2E802C1B4
:10503000914609E00FFA8CFC4FEAEC71042A03D187
:105040004FFA8CFC4FEAEC71002907DA0A4600217E
:10505000DCF1000C61EB02012D2202E0220504D5F7
:105060002B228DF80420012203E0E20701D0202248
:10507000F7E7904659E00A2102E010220DE01021E6
:105080004FF0000A00910BE010224FF0000A44F0AC
:1050900004040827009203E008224FF0000A00925F
:1050A000C4F30252022A05D059F804CB0021032A86
:1050B00008D009E009F1070121F00702F2E802C176
:1050C000914605E01FFA8CFC042A01D10CF0FF0C7C
:1050D0004FF00008220728D5702806D0009B83F0E7
:1050E000100353EA0A0305D00EE040228DF8042095
:1050F000012208E05CEA010206D030228DF804208B
:105100008DF8050002229046009B83F0080353EAC5
:105110000A030AD15CEA010201D1620705D53022F7
:105120008DF804204FF001087F1E582804D034A0C9
:1051300003900EA802900DE036A0F9E753466046B2
:10514000009AFBF73DF884460398825C0298401E63
:10515000029002705CEA0100F0D1029806A9081AD8
:1051600000F1200A600702D524F4803400E0012712
:10517000574502DDA7EB0A0000E0002000EB0A0122
:10518000009005984144401A0590E00306D45B4620
:105190002146179A059800F0B3F90544002706E068
:1051A00001A85A46C05D179990476D1C7F1C474562
:1051B000F6DBE0030CD55B462146179A059800F014
:1051C0009FF9054404E030205A46179990476D1C1A
:1051D0000099481E00900029F5DC08E00298029929
:1051E0005A460078491C0291179990476D1CBAF1F4
:1051F0000001AAF1010AF1DC65E1000009280100C3
:10520000303132333435363738396162636465663C
:1052100000000000303132333435363738394142FE
:10522000434445460000000000F058F90544761C50
:10523000307800287FF4ECAD19B02846BDE8F08F37
:10524000620700D4062709F1070222F0070CFCE8E8
:105250000223E14603F000485FEA080C02D00FF297
:10526000702C0DE05FEA045C02D50FF2682C07E0B9
:105270005FEAC47C02D00FF2602C01E0AFF2700C48
:105280004FF0FF3823F00043CDF850C065280CD014
:1052900006DC452809D046281DD047283DD13DE0F1
:1052A000662818D067287ED138E00021112F01DB55
:1052B000112000E0781CCDE9000106A90EA8FFF737
:1052C000EDFCDDE90F010E9A03910021009207F138
:1052D000010A04914DE04FF000400097CDE9011024
:1052E00006A90EA8FFF7DAFCDDE90F0203920E9B78
:1052F00011990022DDF80CA00093049211B9791CD9
:1053000000EB010AB7EB0A0004D4C0F1FF3007F14B
:10531000010A0490AAEB0700019044E0012F00DA93
:1053200001270021112F01DD112000E03846CDE9D1
:10533000000106A90EA8FFF7B1FCDDE90F010E9AE6
:105340000391002104910092BA4621070CD40399DD
:10535000514500DA8A46BAF1010F05DD009AAAF13B
:105360000101515C302908D0B84202DA10F1040F73
:1053700006DA0121CDE9011015E0AAF10101E9E702
:10538000002805DC049901440491AAEB000102E025
:10539000411C514500DD8A460499401A401C019089
:1053A0004FF000400290200704D40198504501DBE3
:1053B000CDF8048000208DF84F0002980DF14F07C2
:1053C000B0F1004F25D02B200E9002984FF002082C
:1053D00000280CDA404202902D200E9007E00A21AE
:1053E0000298FBF73DF93031029007F8011DB8F142
:1053F0000001A8F10108F2DC02980028EFD1791E23
:105400000E980870307800F0200040F0450007F852
:10541000020D12A8C01B00F107081498007800B113
:10542000012000EB0A01019801EBE071059841446D
:10543000401A401E0590E00306D45B462146179AA9
:10544000059800F05DF805441498007818B15A46A4
:10545000179990476D1CE00324D55B462146179AA7
:10546000059800F04DF805441CE00498002807DB7F
:10547000DDE90301884203DD0098405C179901E0F3
:10548000179930205A469047049805F10105401CB1
:1054900004900198401E019004D12E205A4617997D
:1054A00090476D1CBAF10001AAF1010ADDDC05E0AC
:1054B00017F8010B5A46179990476D1CB8F1000177
:1054C000A8F10108F4DC5B462146179A0598ABE683
:1054D0002D0000002B000000200000002DE9F0410D
:1054E000044600251E461746880404D405E03946C4
:1054F0002020B0476D1C641EF9D52846BDE8F08118
:105500002DE9F041044600251E469046C80301D50A
:10551000302700E02027880404D505E041463846BE
:10552000B0476D1C641EF9D52846BDE8F081000027
:10553000FEB506460D460024684600F0DDFE00225A
:105540009FED1B1A6B46012156F8227055F8220078
:10555000381A00D5404200EE100A03EB8200B8EE84
:10556000C00AD0ED000A20EE010AF5EEC00AF1EE05
:1055700010FA0DD0C0EE201AB7EE000A0D4F31EE32
:10558000C00AB0EEC00A10EE100AB84207DC09E00B
:1055900010EE100A084F3844084FB84202D301FAFF
:1055A00002F00443521C032ACEDB2046FEBD00005D
:1055B00000008037295C0F3E666666C19A99D90063
:1055C00010B541EC100BFFF73FF851EC100B10BD7C
:1055D00070B52DED0C8BDFEDA0BA9FEDA0CB9FED4C
:1055E000A1DB9FEDA28ADFEDA28A9FEDA2AB9FED2A
:1055F000A39BA44D9FEDA4BA02F01CF990ED000A04
:105600000446B8EEC00A20EE080A20EE280A20EE72
:105610002B0A10EE100AFAF7DCFF53EC1A2BFAF7FC
:1056200069FF53EC192BFAF7F3FE53EC1C2BFAF736
:10563000E3FF94ED000AB8EEC00A20EE080A20EE5F
:10564000280A20EE2B0A10EE100A06D8FAF7C1FF3E
:1056500041EC100B53EC1A2B05E0FAF7BAFF53ECB0
:105660001D2B41EC100B51EC100BFAF743FF53ECE0
:10567000192BFAF7CDFEFAF7D7FF286094ED010A4F
:10568000B8EEC00A20EE080A20EE280A20EE2B0A07
:1056900010EE100AFAF79DFF53EC1A2BFAF72AFFC7
:1056A00053EC192BFAF7B4FE53EC1C2BFAF7A4FFBA
:1056B00094ED010AB8EEC00A20EE080A20EE280A8E
:1056C00020EE2B0A10EE100A06D8FAF782FF41EC02
:1056D000100B53EC1A2B05E0FAF77BFF53EC1D2B54
:1056E00041EC100B51EC100BFAF704FF53EC192BA3
:1056F000FAF78EFEFAF798FF686094ED020AB8EEAA
:10570000C00A20EE080A20EE280A20EE0B0A10EE4E
:10571000100AFAF75EFF53EC1A2BFAF7EBFE53EC84
:10572000192BFAF775FE53EC1C2BFAF765FF94ED75
:10573000020AB8EEC00A20EE080A20EE280A20EE7F
:105740000B0A10EE100A06D8FAF743FF41EC100BD3
:1057500053EC1A2B05E0FAF73CFF53EC1D2B41EC00
:10576000100B51EC100BFAF7C5FE53EC192BFAF79E
:105770004FFEFAF759FFA86094ED030AB8EEC00A8D
:1057800020EE080A20EE280A20EE0B0A10EE100A7E
:10579000FAF71FFF53EC1A2BFAF7ACFE53EC192B58
:1057A000FAF736FE53EC1C2BFAF726FF94ED030AAA
:1057B000B8EEC00A20EE080A20EE280A20EE0B0AF6
:1057C00010EE100A06D8FAF704FF41EC100B53EC68
:1057D0001A2B05E0FAF7FDFE53EC1D2B41EC100BE4
:1057E00051EC100BFAF786FE53EC192BFAF710FE6A
:1057F000FAF71AFFE8602868FAF7EBFE41EC100BA5
:1058000022A053EC102B2168FEF736FD6868FAF7EA
:10581000E0FE41EC100B25A053EC102B6168FEF765
:105820002BFDA868FAF7D5FE41EC100B27A053EC2E
:10583000102BA168FEF720FDE868FAF7CAFE41ECDC
:10584000100BE16853EC102BBDEC0C8B27A0BDE8CE
:105850007040FEF711BD00009A99993F00000000CA
:10586000000000006666666666667AC0C3F548405A
:105870009A99D9406666666666667A4000000000BE
:1058800000001440880000206666A63F656E636FC6
:105890006465723A202564092073706565643A2551
:1058A0002E326620636D2F730D0A0000656E636FE4
:1058B000646572313A202564092073706565643A25
:1058C000252E326620636D2F730D0A00656E636F9F
:1058D000646572323A202564092073706565643A04
:1058E000252E326620636D2F730D0A00656E636F7F
:1058F000646572333A202564092073706565643AE3
:10590000252E326620636D2F730D0A00084810B5EE
:1059100000780F280BD200231A4619461846FEF7C6
:1059200031FBBDE810404FF4FA60FBF7F3B810BD4F
:105930000000002008B560B120208DF8000028206C
:105940008DF8010030208DF8020038208DF803001A
:1059500004E0A32204216846FAF794FC6A46042175
:1059600040F69E2001F03CFF01F0FAFB08BD00006C
:105970003EB5044602208DF80000CA208DF80100D3
:10598000E3208DF8020009208DF803006A46042107
:10599000682001F025FFA3208DF80000610609D5DD
:1059A000C0218DF80110C8218DF80210C2218DF898
:1059B000031005E08DF801008DF802008DF803005A
:1059C00014F4C07F09D0C4218DF80410CC218DF8C7
:1059D0000510C6218DF8061005E08DF804008DF83D
:1059E00005008DF806008DF808008DF807008DF889
:1059F00009006A460A2140F6A72001F0F1FEA0073F
:105A00004FF0D80503D020208DF8000001E08DF87C
:105A100000506A46012140F6B62001F0E1FEA006E2
:105A200001D5012000E0002000F08EF814F4C07FC2
:105A30001ED0E0050AD5B2208DF800008B208DF82D
:105A40000100B6208DF802009B2009E0B0208DF8FF
:105A5000000080208DF80100B4208DF80200902015
:105A60008DF803006A46042140F6A22001F0B8FE3A
:105A7000E1074FF40B6022D0F8218DF800106A4640
:105A8000012101F0ADFEFA21072000F03BFB0720C9
:105A900000F006FB012000F023FB642000F0E2FB95
:105AA0004FF4FA7000F0EEFBC821254800F0C0FA70
:105AB000282000F0D5FA0A2000F0E2FA05E08DF87F
:105AC00000506A46012101F08BFEA00703D5D920C2
:105AD0008DF8000001E08DF800506A46012140F287
